:020000040800F2
:105000003845002045510008077100089F6E0008D0
:105010000571000891560008AD80000800000000EE
:10502000000000000000000000000000397A0008C5
:1050300013570008000000006D710008197B00087C
:105040005F5100085F5100085F5100085F51000880
:105050005F5100086F7100085F5100085F51000840
:105060005F5100085F5100085F5100085F51000860
:105070005F510008AD560008B9560008C556000833
:10508000D1560008DD5600085F5100085F51000846
:105090005F5100085F5100085F5100085F51000830
:1050A0005F5100085F5100085F5100085F51000820
:1050B0005F5100085F5100085F5100085F51000810
:1050C0005F5100085F5100085F5100085F51000800
:1050D0005F510008517F0008A97F00080180000887
:1050E0005F5100085F5100085F5100085F510008E0
:1050F0005F5100085F5100085F5100085F510008D0
:105100005F5100085F5100085F5100085F510008BF
:105110005F5100085F5100085F5100085F510008AF
:105120005F5100085F5100085F5100085F5100089F
:10513000DFF80CD000F0DCF80048004739840008A4
:10514000384500200648804706480047FEE7FEE74E
:10515000FEE7FEE7FEE7FEE7FEE7FEE7FEE7FEE727
:105160006D7B000831510008202A04DB203A21FA27
:1051700002F00021704721FA02F3D040C2F1200270
:10518000914008431946704740EA01039B0703D04A
:1051900009E008C9121F08C0042AFAD203E011F876
:1051A000013B00F8013B521EF9D27047D2B201E038
:1051B00000F8012B491EFBD270470022F6E710B51C
:1051C00013460A4604461946FFF7F0FF204610BD75
:1051D00030B505462A460B4612F8010B13F8014B71
:1051E00008B1A042F8D01CB1002802D06D1CF1E734
:1051F000284630BD421C10F8011B0029FBD1801A43
:10520000704770B5064602F091FF046805460A2211
:105210000021304600F033F82C6070BD2DE9F05FBE
:105220000546002092469B46884606468146402415
:105230001BE02846414647462246FFF795FF534666
:105240005A46C01A914110D311461846224600F022
:1052500061F82D1A67EB01084F4622460120002114
:1052600000F058F817EB00094E41201EA4F101048C
:10527000DFDC484631462A464346BDE8F09F2DE92B
:10528000F04791460F4680460446002614F8015B1D
:105290002DB100F04FF80068405DC007F6D12B2D0E
:1052A00002D02D2D18D0641E4A463946204600F003
:1052B00045F827B13968A14201D1C7F800807105CE
:1052C0004FF002040BD54042002803DD02F02EFF10
:1052D0000460A007BDE8F08746F48066E4E7002894
:1052E000F8DA02F023FF04606FF00040F2E70000FC
:1052F000064C074D06E0E06840F0010394E8070023
:1053000098471034AC42F6D3FFF716FF0C8A00081A
:105310002C8A0008202A04DB203A00FA02F100203F
:1053200070479140C2F1200320FA03F319439040E3
:1053300070470000004870479C8700082DE9F05F27
:1053400082460078002715468B460AF10104B946CB
:10535000302801D09DB113E014F8010B0127782803
:1053600003D0582801D045B10AE00DB1102D07D166
:105370000027102514F8010B02E0082500E00A259B
:105380000026B0460EE005FB080005FB06F10127EC
:1053900001EB10461FFA80F8B6F5803F00D3B946FE
:1053A00014F8010B294600F018F80028EBDABBF1DD
:1053B000000F05D00FB1641E00E05446CBF800404A
:1053C000B9F1000F06D002F0B1FE02210160C81E43
:1053D000BDE8F09F48EA0640FAE73A2800D23038A4
:1053E00020F02002412A01D3A2F13700884201D3E4
:1053F0004FF0FF30704770B58C1810F8015B15F056
:10540000070301D110F8013B2A1106D110F8012B36
:1054100003E010F8016B01F8016B5B1EF9D12B075B
:1054200005D40023521E0DD401F8013BFAE710F811
:10543000013BCB1A921C03E013F8015B01F8015BFE
:10544000521EF9D5A142D8D3002070BD2DE9F041FC
:10545000104D287800281BD00F4E06F14007F07839
:1054600000EB400007EB8000416805F2D6708046F3
:10547000FFF7AEFE002428B1F07800EB400007EB08
:1054800080008472414605A002F02CFE2C70AC8096
:10549000BDE8F0818618002000000020404020BDBB
:1054A000D3CAD53A25730D0A000000002DE9F04754
:1054B0000546ADF6B85D4FF47A615148FFF77DFEC1
:1054C00040F6AC5A514603A8FFF777FE4D4C05EB6A
:1054D000450604EB86070320A4F14009B87289F859
:1054E00003504946DFF82081093D8B6888690A2D01
:1054F00074D2DFE805F00D101D242842686D730595
:1055000002F070F902F0DAF90DF6B85DBDE8F08747
:105510003EA1E26E3DE0D9F81010CDE900130293F0
:10552000A26F3DA103A8D9F80C3002F0EBFD33E0E7
:10553000FFF760FE034641A1D4F8842029E002462B
:10554000D4F8903047E040A14046FFF741FE58B103
:105550001E213F48FFF731FE3D4B3EA23EA1404693
:1055600000F0C2F93A4801E0D9F81400FFF742FE12
:10557000D4F89C2003463AA10BE033A14046FFF744
:1055800027FED4F8A83008B1314A24E0D9F8142015
:1055900021E003A802F0B6FD03A8FFF72BFE82B2BC
:1055A000FF2303A9304801F01CFC03A92FA002F03F
:1055B00099FD514603A8FFF700FE124839891838B3
:1055C00002F044FAA0E72F48D4F8B4208388D2E749
:1055D000D4F8C03042462CA1DBE7FFE754F82600A0
:1055E000FFF708FE82B254F82610FF231E4801F090
:1055F000F8FB54F826101DA002F074FDDDE7000052
:105600005C20002040000020CE0C002025732225C5
:1056100073220D0A000000002573227463703A2F74
:105620002F25733A2573222C3138302C312C22252A
:1056300073222C222573220D0A0000002573256495
:105640002C312C310D0A00004241434B0000000078
:10565000B3060020220000004241434B223A2200C0
:10566000257325640D0A0000443300204040204685
:10567000475F53656E6444617461427566663A259E
:10568000730D0A00EC06002025732573000000004E
:10569000FEE710B5044600F063FD2168401A61681A
:1056A000884201D3012010BD002010BD014800F048
:1056B000FBB90000D4340020014800F0F5B9000027
:1056C00008340020014800F0EFB90000C433002086
:1056D000014800F0E9B900004C340020014800F016
:1056E000E3B900009034002030B590F84050012418
:1056F000AC40C56B6C60046863604368102B036842
:1057000003D099600068C26030BD9A600068C160D3
:1057100030BD704708B5252000F088FD1E49086897
:10572000C26822F02002C2600868C16821F010013E
:10573000C1601A4900200870174840300168CA68E3
:1057400042F02002CA600168CA6842F01002CA60D2
:1057500000680168406800900F484FF4FA621049F1
:10576000403001F061FA0C4880300168CA6842F0AC
:105770002002CA600168CA6842F01002CA6000686C
:105780000168406800900749BDE808404FF4807206
:1057900001F2823001F048BA04330020EC06002008
:1057A0008C1800200230002030B585B00C4605462C
:1057B00000F0C4FB002002950090CDE9034004A94D
:1057C000684600F01DFB00F06FFB05B0012030BD06
:1057D0007047000006490020C8610648016941F091
:1057E00004010161016941F040010161704700005D
:1057F0001835002000200240064A0021D1610649E8
:105800000A6942F002020A614861086940F04000FA
:10581000086170471835002000200240044B002228
:10582000DA61044A136943F0010313610180704790
:10583000183500200020024014480022C168CB0621
:10584000134904D5CA6942F00202CA611022C36832
:105850005B0705D5CB6943F00103CB6142F004023D
:10586000C369DB0707D0CB6943F00403CB61C1698F
:1058700021F00101C161A2F58071013901D0C2603E
:105880007047C16921F00101C161704700200240E9
:105890001835002070B5054600F062FC0646114C34
:1058A00009E0681C07D025B100F05AFC801BA84213
:1058B00001D9032070BDE068C007F2D1E06880061E
:1058C00001D52020E060E068C00605D4E069C0078B
:1058D00002D1E068400703D5FFF7AEFF012070BD9D
:1058E000002070BD002002402DE9F0411E46154603
:1058F0000F46FFF76DFC04463846FFF77BFC20445B
:105900002946FFF765FC054614B10DB1AC4205D937
:1059100007A002F0E7FB0020BDE8F0813846FFF762
:1059200069FC01196A1A3046FFF72EFC0120F3E7E3
:10593000737472696E67206E616D65206E6F74207E
:10594000666F756E64210A0001680A6822F00E0213
:105950000A6001680A6822F001020A6090F840209B
:10596000C36B012101FA02F25A6080F82110002174
:1059700080F82010084670472DE9F05F90F821105C
:105980000024022903D004218163012485E00168F9
:105990000A6822F00E020A6001680A6822F0010219
:1059A0000A603F4E3E4FB215DFF8F4C0DFF8F090CA
:1059B000DFF8ECA0DFF8E8B0DFF8E4E00168783F5A
:1059C00013011502ACF1640CA9F15009AAF13C0ACB
:1059D000ABF1280BAEF1140E4FF48018B14227D969
:1059E000B9420ED0614512D049451DD0514518D05D
:1059F000594518D0714501D1424615E0294EB142B2
:105A000001D1012210E0274E1436B14201D11022FB
:105A10000AE0244E2836B14206D0224A3C32914256
:105A200001D11A4600E02A461E49091F0A602BE0F0
:105A3000B94213D0614517D0494522D051451DD0F8
:105A400059451DD0714501D142461AE0B14202D1FB
:105A50004FF0807215E0134EB14201D1012210E0E7
:105A6000104E1436B14201D110220AE00D4E2836F4
:105A7000B14206D00B4A3C32914201D11A4600E0B5
:105A80002A46074980394A60012180F82110002107
:105A900080F82010416B01B188472046BDE8F09F97
:105AA00080000240080402402DE9F05FC16B0A68E3
:105AB00001680B68046C4FF0040808FA04F8844D80
:105AC000844E854FDFF814C2DFF81492DFF814A279
:105AD000DFF814B2DFF814E218EA020F65D05FEACB
:105AE000437862D50A68920603D40A6822F0040259
:105AF0000A60DFF8F0814FF48062016808F1140851
:105B000013011402414524D9A9420DD0B1420FD04E
:105B1000B9421AD0614515D0494515D0514501D13A
:105B2000120312E0594501D104220EE0714501D162
:105B300040220AE06D4D1435A94206D06B4A283246
:105B4000914201D11A4600E022466749091F0A60C6
:105B500029E0A94213D0B14215D0B94220D0614505
:105B60001BD049451BD0514502D14FF4800217E0AC
:105B7000414502D14FF0806212E0594501D1042223
:105B80000EE0714501D140220AE0584D1435A9427A
:105B900006D0564A2832914201D11A4600E02246E8
:105BA0004B4908394A60C16A71E04FF0020808FAAF
:105BB00004F818EA020F70D05FEA83786DD50A689E
:105BC000920606D40A6822F00A020A60012180F8CF
:105BD0002110DFF810814FF40072016808F11408F9
:105BE00013011402414524D9A9420DD0B1420FD06E
:105BF000B9421AD0614515D0494515D0514501D15A
:105C0000120312E0594501D102220EE0714501D183
:105C100020220AE0354D1435A94206D0334A2832F5
:105C2000914201D11A4600E022462F49091F0A601D
:105C300029E0A94213D0B14215D0B94220D0614524
:105C40001BD049451BD0514502D14FF4001217E03B
:105C5000414502D14FF0007212E0594501D10222B4
:105C60000EE0714501D120220AE0204D1435A942F1
:105C700006D01E4A2832914201D11A4600E022463F
:105C8000134908394A60002180F82010816A0029F0
:105C90001CD0BDE8F05F0847FFE70825A540154286
:105CA00014D01A0712D50A6822F00E020A6090F882
:105CB0004020C36B012101FA02F25A60816380F82F
:105CC0002110002180F82010016BE0E7BDE8F09F73
:105CD000080002401C000240300002404400024024
:105CE000580002406C000240080402401C040240BC
:105CF00030B560B11A4B026814219A4209D2194B8F
:105D00001344B3FBF1F18900016417490AE0012053
:105D100030BD134B5B421344B3FBF1F189000164C6
:105D20000F490839C163022180F82110136843F636
:105D3000F0718B43F0E901142143D0E902452C4373
:105D40002143046921434469214384692143194360
:105D5000116000214163012242770177084630BD7E
:105D600008040240F8FFFDBF0000024070B5044681
:105D700090F82000002501280CD0012084F8200094
:105D800094F821600020012E06D084F8200002251E
:105D9000284670BD022070BD022684F82160A063F1
:105DA0002068066826F0010606602046FFF79CFC86
:105DB000E06A00282068016802D041F00E0106E088
:105DC00021F0040101602068016841F00A010160CE
:105DD0002068016841F001010160D9E770B504460F
:105DE00000F0BEF90546601C02D004480078044467
:105DF00000F0B6F9401BA042FAD370BD9801002014
:105E00002DE9F047054626480F460126017E012967
:105E10000FD00121814601762868DFF888804CF296
:105E20005034022808D0A2462046FFF733FDA8B11F
:105E300031E00220BDE8F0872046FFF72BFD08BBCC
:105E40000120FFF7C7FC2046FFF724FDD8F810100B
:105E5000064621F00401C8F810101CE04FF0FF3096
:105E60003860AC6811E02046FFF7C6FC5046FFF7EB
:105E700011FDD8F81010060021F00201C8F810102A
:105E800001D03C6007E004F50064D5E9020100EBB5
:105E9000C120A042E7D8002189F818103046C9E790
:105EA00018350020002002400348016941F08001BC
:105EB0000161002070470000002002402DE9F05FE2
:105EC00007461C4888460024017E15461E460129C7
:105ED00009D00121814601764CF2503A5046FFF735
:105EE000D9FC18B122E00220BDE8F09F012F02D0BA
:105EF000022F00D00427D346DFF83CA02201284619
:105F00003146FFF731F981B208EB4400FFF786FC18
:105F10005846FFF7BFFCDAF8102022F00102CAF859
:105F2000102018B9641CE4B2BC42E7D3002289F8FF
:105F30001820D9E71835002000200240064900202B
:105F40000A69120607D5054A4A60054A4A60096986
:105F5000090600D501207047002002402301674553
:105F6000AB89EFCD2DE9F84FDFF8B8A100220AF197
:105F7000040B144601274FF00F090BF1040E00BF6C
:105F80000B6807FA04F52B40AB4274D1DFF898C1D7
:105F90004E68A6EB0C0866452BD00DDC032E34D0E2
:105FA00005DC36B3012E19D0022E2FD11BE0112EA5
:105FB00016D0122E2AD119E0B8F5881F19D006DCA8
:105FC000B8F5803F15D0B8F5801F1FD111E0B8F5A6
:105FD000001F0ED0B8F5041F18D10AE0CA6815E0FA
:105FE000CA68121D12E0CA6808320FE0CA680C3293
:105FF0000CE08A682AB1012A4FF0080203D04561FB
:1060000004E0042202E0056100E00022FF2B01D839
:10601000064601E000F104064FEA840501D9A5F126
:106020002005D6F800C009FA05F82CEA080C02FA97
:1060300005F54CEA050CC6F800C04D68ED006AD5C0
:106040003A4DAE6946F00106AE61AD6924F0030633
:1060500005F001050095364D06EB050CDCF80850FF
:10606000A6074FEA167809FA08F6B543314EB04252
:1060700002D100261AE04EE02F4EB04201D1012697
:1060800014E02E4EB04201D102260FE02C4EB04259
:1060900001D103260AE02B4EB04201D1042605E0CF
:1060A000294EB04201D1052600E0062606FA08F680
:1060B0002E43CCF808604D68DAF80060ED035546D1
:1060C00001D51E4300E09E432E604D68AD0305D50B
:1060D000DBF800601E43CBF8006004E0DBF8005002
:1060E0009D43CBF800504D68DEF80060ED02754628
:1060F00001D51E4300E09E432E604D68AD0205D5DC
:10610000084D0C352E681E432E6004E0054E0C36FB
:1061100035689D433560641C102CFFF431AFBDE839
:10612000F88F000000040140000011100010024030
:106130000000014000080140000C01400010014037
:106140000014014000180140001C01408068084014
:1061500000D0012070470AB1016170470904FBE7D4
:10616000014880687047000098010020024881685B
:10617000027811448160704798010020074810B5EB
:10618000016841F010010160032000F085F8002053
:1061900000F006F800F024F8002010BD00200240B6
:1061A00070B50D4D04464FF47A712878B1FBF0F0CC
:1061B0000A490968B1FBF0F000F020FB48B9102C47
:1061C00007D200222146501E00F046F800206C60E5
:1061D00070BD012070BD000098010020A4010020C6
:1061E000104808B5816941F001018161816901F0C0
:1061F00001010091C16941F08051C161C069002273
:1062000000F0805000901146052000F025F8052090
:1062100000F017F80448416821F0E06141F0007196
:10622000416008BD001002400000014000F01F0264
:10623000012191404009800000F1E020C0F8801168
:10624000704700F01F02012191404009800000F1D9
:10625000E020C0F800117047F0B40E4B1B680C46EC
:10626000C3F30223C3F10705042D00D90425191D2A
:10627000072901D2002300E0DB1E012606FA05F102
:10628000491E214099409E40761E16403143F0BC85
:1062900000F03ABF0CED00E0064900F00702086884
:1062A0004FF6FF03184040EA0220034A10430860FB
:1062B000704700000CED00E00000FA05BFF34F8FBF
:1062C00005480168054A01F4E06111430160BFF32C
:1062D0004F8F00BFFDE700000CED00E00400FA0561
:1062E0002DE9F047DFF8548105460E46D8F8000046
:1062F00000F00700B0420CD2D8F8001021F00701DE
:106300003143C8F80010D8F8000000F00700B04290
:106310006FD128684A4C810712D5400703D56068C1
:1063200040F4E06060602878000703D5606840F4BE
:10633000605060606068A96820F0F0000843606009
:106340002878C00744D06868012816D02168022840
:1063500016D0890700294CDA616821F00301014356
:106360006160FFF7FDFE6968074641F28830012948
:106370000ED00229814618D026E021688903E9E77A
:106380008901E7E7FFF7ECFEC11B494501D918E099
:1063900081466068C0F381000128F3D118E000BF96
:1063A000FFF7DEFEC11B49450BD86068C0F38100D2
:1063B0000228F5D10CE000BFFFF7D2FEC11B494512
:1063C00002D90320BDE8F087606810F00C0FF3D10C
:1063D000D8F80010404601F00701B1420BD901681E
:1063E00021F0070131430160006800F00700B0426E
:1063F00001D00120E6E72878400705D56068E96804
:1064000020F4E060084360602878000706D56068E3
:10641000296920F4605040EAC100606000F036F85D
:106420006168084AC1F30311515CC840064908601D
:106430000020FFF7B5FE0020C4E700000020024066
:106440000010024002870008A4010020044805490A
:1064500000684968044AC1F30221515CC840704792
:10646000A4010020001002401287000804480549DA
:1064700000684968044AC1F3C221515CC8407047B2
:10648000A4010020001002401287000812A185B06C
:106490000FC98DE80F0014A0144A006804905168D9
:1064A000134801F00C03042B10D0082B0ED1C1F3BC
:1064B0008343C9031DF803000AD5516804AAC1F338
:1064C0004041515C0A4A5043B0FBF1F005B07047BF
:1064D00008494843FAE700000203040506070809D3
:1064E0000A0B0C0D0E0F10100102000000100240EC
:1064F00000127A0000093D002DE9F84F04460078AB
:10650000B94DC00748D06868C0F38100012807D0A2
:106510006868C0F38100022809D16868C00306D505
:106520002868800338D5606800286FD034E0606840
:10653000B0F5803F0BD010B1B0F5A02F11D0286876
:1065400020F480302860286820F4802002E0286849
:1065500040F480302860606888B1FFF701FE06468D
:1065600009E0286840F480202860F0E7FFF7F8FD94
:10657000801B642875D828688003F7D50CE0FFF7E6
:10658000EFFD064605E000BFFFF7EAFD801B64282B
:10659000F0D828688003F7D42078944E80074FF015
:1065A00001094FF000083BD5686810F00C0F07D0C8
:1065B0006868C0F38100022809D16868C00306D466
:1065C0002868800714D5206901281FD110E02069B0
:1065D000B0B1C6F80090FFF7C3FD074605E000BF65
:1065E000FFF7BEFDC01B0228C4D828688007F7D576
:1065F0002868616920F0F80040EAC10028600FE0D7
:10660000C6F80080FFF7ACFD074606E0E9E000BFF2
:10661000FFF7A6FDC01B022823D828688007F7D4FF
:10662000207800072CD57248A169D9B1C0F8009034
:10663000FFF796FD074604E0FFF792FDC01B022816
:106640000FD8686A8007F7D56A484FF4FA51006896
:10665000B0FBF1F0009000BF0098411E0091FAD20B
:106660000EE080E0C0F80080FFF77AFD074604E006
:10667000FFF776FDC01B022875D8686A8007F7D43B
:106680002078400760D5E8690027C00008D4E86991
:1066900040F08050E861E869012700F080500090E8
:1066A00055480168C90513D40168834641F48071D7
:1066B0000160FFF755FD824606E000BFFFF750FD81
:1066C000A0EB0A0064284ED8DBF80000C005F5D521
:1066D000E06801280AD008B1052813D0286A20F004
:1066E00001002862286A20F0040002E0286A40F0D5
:1066F00001002862E06841F2883B98B1FFF730FD65
:1067000082460BE0286A40F004002862EEE700BFF2
:10671000FFF726FDA0EB0A0159455AD8286A8007E1
:10672000F6D50CE0FFF71CFD824605E0FFF718FDEB
:10673000A0EB0A0159454CD8286A8007F6D41FB14E
:10674000E86920F08050E861E06988B36968C1F3C6
:106750008101022945D00228C6F8608004D0FFF7E5
:10676000FFFC044638E034E0FFF7FAFC074604E09B
:10677000FFF7F6FCC01B02282BD828688001F7D44D
:10678000206AB0F5803F05D16868A16820F4003028
:1067900008436860D4E908010843696821F474116A
:1067A00008436860C6F86090FFF7DAFC044606E02C
:1067B00015E000BFFFF7D4FC001B022809D82868A9
:1067C0008001F7D50BE000BFFFF7CAFC001B0228D1
:1067D00002D90320BDE8F88F28688001F4D4002096
:1067E000F8E70120F6E700000010024000004242F6
:1067F00080044242A40100200070004010B5401EF9
:10680000B0F1807F01D3012010BD4FF0E024606122
:106810000F21601700F078FC0020A06107202061A4
:10682000002010BD10B504460068416994F8392075
:10683000C1F3C011212A0BD151B1416921F080016E
:106840004161206B08B1FFF77FF8204601F010FA94
:106850002068416994F83A20C1F38011222A0BD1B3
:1068600051B1416921F040014161606B08B1FFF70E
:106870006BF8204601F0EEF9002010BD70470000D3
:1068800070B5026804461068D168536910F00F0FA4
:1068900050D003F0010501F4907635435DD0C20776
:1068A00005D0CA0503D5E26B42F00102E26342075C
:1068B00005D5DA0703D0E26B42F00202E2638207F9
:1068C00005D5DA0703D0E26B42F00402E263020767
:1068D00005D5DA0703D0E26B42F00802E263E26B0F
:1068E000002A33D0800604D5880602D5204601F060
:1068F000C8F920684069E16BC0F38010090700D433
:1069000028B3204601F0A6F92068416949061AD546
:10691000416921F040014161606BA0B11B494163B5
:10692000606BFFF729F8002810D0606B416BBDE861
:1069300070400847830610D58B060ED52046BDE86B
:10694000704001F09EB92046FFF798FF70BD2046C9
:10695000FFF794FF0020E06370BD030606D50B0629
:1069600004D52046BDE8704001F08EBA4006F3D54C
:106970004806F1D5D168204621F04001D1602021A0
:1069800084F8391000F08AFA70BD0000B57B000869
:1069900070B5040004D094F83900002510B106E069
:1069A000012070BD84F83850204600F023F82420E0
:1069B00084F839002068C16821F40051C160204684
:1069C00001F0AAF92068016921F490410161206871
:1069D000416921F02A0141612068C16841F40051F8
:1069E000C160E563202084F8390084F83A00002073
:1069F00070BD00002DE9F04786B000250095019597
:106A0000029503950446DFF8FC81D0F800C07E486B
:106A1000022103227D4B012780264FF480694FF02D
:106A2000100AC44553D1D0F818C04CF4804CC0F8BB
:106A300018C0D0F818C00CF4804CCDF810C0D0F8B5
:106A400018C04CF0040CC0F818C08069039200F024
:106A5000040004900802CDE90001694698461846F2
:106A6000FFF780FACDF80090CDE90157694640461E
:106A7000FFF778FA674F6648C7E90005C7E902568D
:106A80003D617D61BD613846FD61FFF731F908B1B7
:106A9000FEF79EFE67637C625E4F5D4844371438A4
:106AA000C7E902563D617D61BD61FD61C7E9000A2C
:106AB0003846FFF71DF908B1FEF78AFE276300226A
:106AC000012125207C62FFF7C7FB252057E0DFF876
:106AD0004881C44558D1D0F81CC04CF4003CC0F8E3
:106AE0001CC0D0F81CC00CF4003CCDF810C0D0F88D
:106AF00018C04CF0040CC0F818C08069039200F074
:106B0000040004900420CDE9000169469846184627
:106B1000FFF728FA08208DE8A10069464046FFF7F4
:106B200021FA3C4F3A4888371430C7E90005C7E9D5
:106B300002563D617D61BD613846FD61FFF7D8F8C1
:106B400008B1FEF745FE67637C62324F3048CC37B0
:106B50002830C7E902563D617D61BD61FD61C7E92D
:106B6000000A3846FFF7C4F808B1FEF731FE276384
:106B70000022114626207C62FFF76EFB2620FFF7DD
:106B800060FB06B0BDE8F087244B9C45F9D1C36992
:106B900043F48023C361C36903F4802304938369AE
:106BA00043F0080383618069CDE9009100F008009B
:106BB000CDE90320DFF8688069464046FFF7D2F947
:106BC0004FF400608DE8A10069464046FFF7CAF91E
:106BD0000F48144F2838C7E90005C7E902563D6140
:106BE0007D61BD613846FD61FFF782F808B1FEF7AF
:106BF000EFFD67630022022127207C62FFF72CFB58
:106C00002720BCE700380140001002400008014086
:106C100058000240C43300200044004000480040B7
:106C2000000C0140D4340020F8B5044690F83A0036
:106C300020283CD1C1B3BAB394F83800012836D02B
:106C4000012084F83800A162A2850025E563222096
:106C500084F83A00636B17489862636B1648D862F1
:106C6000636B16481863606B134645630846666B92
:106C7000216802463046091DFFF778F82068016850
:106C80004168009184F83850C16841F48071C16056
:106C90002068416941F0010141612068416941F08A
:106CA000400141610020F8BDFFE70120FBE7022021
:106CB000F9E700000F7C00084B7C0008C57B00084A
:106CC0002DE9F0410646006832490125884210D17D
:106CD000314C0020A11DA080628804F2E250FEF732
:106CE00053FA6088A08040F2DC51A01DFEF765FADF
:106CF00025702A49306888422CD1294C04F2D67775
:106D0000A088628838B13844A11DFEF73DFAA088FA
:106D10006188084404E0A11D3846FEF735FA608812
:106D2000A08020A13846FEF753FA68B1394622A068
:106D300001F0D8F924A13846FEF74AFA08B12448F0
:106D40000560244801F0F0FB4FF4FA61A01DFEF746
:106D500034FA257020493068884218D11F4C04F558
:106D60008370A188628839B10844A11DFEF70CFA2E
:106D7000A0886188084403E0A11DFEF705FA608839
:106D8000A0804FF48071A01DFEF717FA2570BDE8B2
:106D9000F081000000380140EC0600200044004073
:106DA000861800202B434D51545452585041594C91
:106DB0004F41443A00000000525043204D5154547A
:106DC0003A25730D0A000000575A5F4F54410000E6
:106DD000240000204433002000480040FC2F002005
:106DE00070472DE9F843044690F839001F461646CF
:106DF0000D46202850D1A5B19EB194F83800012845
:106E00004AD0012084F838004FF00008C4F83C80D4
:106E1000212084F83900FFF7A3F9A6848146E6848F
:106E200026E00120BDE8F883E08C401EE084A068E5
:106E30004B46B0F5805F4FF000024FF080012046D6
:106E4000009703D001F051F8E8B90DE001F04DF8DA
:106E5000C8B928882168C0F308004860206908B1D3
:106E60006D1C05E0AD1C03E0216815F8010B4860BE
:106E7000E08C0028D8D14B460022402120460097C4
:106E800001F033F808B10320CCE7202084F8390062
:106E900084F838800020C5E70220C3E77047FEE78A
:106EA0000349012231F810100248FFF754B90000DD
:106EB000FC860008001001400349002231F8101040
:106EC0000248FFF748B90000FC86000800100140A6
:106ED00070B5114E114D0024285D012802D0022802
:106EE0000CD015E0E0B2FFF7E7FF0C4906EBC40059
:106EF000891E098800F0AAFD022008E006EBC40004
:106F0000FEF7C7FB20B1E0B2FFF7CAFF002028550B
:106F1000641C032CE0DB70BDD4060020920100202D
:106F2000194808B5416941F00101416140690022F9
:106F300000F00100009011460D20FFF78DF90D20A3
:106F4000FFF77FF9002211460E20FFF785F90E208A
:106F5000FFF777F9002211460F20FFF77DF90F2088
:106F6000FFF76FF9002211461020FFF775F9102086
:106F7000FFF767F9002211461120FFF76DF9BDE810
:106F800008401120FFF75DB9001002402DE9F043E1
:106F900085B000242E4800940194029403948169E2
:106FA00041F020018161816901F020010491816932
:106FB00041F010018161816901F010010491816942
:106FC00041F004018161816901F00401049181694A
:106FD00041F0080181618069DFF8788000F00800E5
:106FE000049000224FF4E0414046FFF7B4F8DFF888
:106FF00068904FF48067002239464846FFF7ABF8A7
:107000000125CDE90054694648460295FEF7AAFFDE
:107010002803009001AA1120022682E85100694647
:107020004046FEF79FFF4FF4C040CDE90005CDE993
:10703000024669464046FEF795FF00970396CDE964
:10704000015469464846FEF78DFF05B0BDE8F08360
:1070500000100240000C0140001001400C4810B527
:107060000A4901604FF4E1314160002181600C2246
:10707000C160C0E904128161C161FFF789FC002889
:1070800003D0BDE81040FEF7A3BB10BD003801409F
:10709000043300200C4810B50A4901604FF4E13177
:1070A0004160002181600C22C160C0E9041281614D
:1070B000C161FFF76DFC002803D0BDE81040FEF76A
:1070C00087BB10BD00440040443300200C4810B57D
:1070D0000A4901604FF4E1314160002181600C22D6
:1070E000C160C0E904128161C161FFF751FC002851
:1070F00003D0BDE81040FEF76BBB10BD0048004058
:1071000084330020FEE770470907090E002806DADD
:1071100000F00F0000F1E02080F8141D704700F12E
:10712000E02080F800147047BFF34F8F05480168D6
:10713000054A01F4E06111430160BFF34F8F00BFC6
:10714000FDE700000CED00E00400FA050648416A86
:10715000012907D100214162152181711621417158
:107160000121017170470000000000207047704746
:107170002DE9F84FFC4EFD4F06F1400AB079DFF8DB
:10718000F09300EB40020AEB820101248A7A4FF06F
:1071900008084FF0090B0025A2B106F12800FEF700
:1071A00078FA00287ED04946F2A000F09BFFB07923
:1071B000122878D078DC072877D0082876D00D28D8
:1071C00075D1A3E14FF0070A142871D008DC062816
:1071D0000DD007286DD00C286CD0112875D14CE14A
:1071E00015280AD0192813D01A286ED10DE1E7A06E
:1071F00000F078FF3D70BD8012E11421E848FDF7F2
:10720000DCFFE74BE7A2E8A14846FEF76DFB5BE039
:10721000E7A14846FDF7DCFF00285DD0E6A000F0BE
:1072200061FFDF48C8211430FDF7C7FFDC4BE9A23E
:107230001433EBA14846FEF757FBD949EAA01431B5
:1072400000F050FFD6481421DC30FDF7B6FFD44BD8
:10725000E9A2DC33E9A1A3F1C800FEF745FBD04960
:10726000E8A0DC3100F03EFFCD4901F1DC00FDF784
:10727000AFFF48B3CA481121F030FDF79EFFC84B5D
:10728000DDA2F033E3A1A3F1DC00FEF72DFBC4493E
:10729000E2A0F03100F026FFB068FDF7ABFF014639
:1072A000B06809E016E0FCE0F6E0FFE021E1FCE078
:1072B000ECE0BAE0BEE008E0FDF77FFFB84ADBA1F2
:1072C000F032B06800F01EFFB079401CB071401C75
:1072D00070713471BDE8F88FB148C8211430FDF7E2
:1072E0006CFFAF4BAFA21433D1A14846FEF7FCFAB6
:1072F000AB481430FDF785FF05460146CEA000F0EF
:10730000F1FEDFF844B3306AB24640B9CFA000F0D6
:10731000E9FE28215846FEF747FACAF82040A0495E
:1073200048461431FDF754FFDFF83893A0EB090607
:107330009B481430FDF75EFF3718CBA0A7F2D47737
:1073400000F0D0FE0026B91901EB090090F8D6171D
:10735000C8A000F0C7FE761C0A2EF4DB91A000F056
:10736000C1FE4FF48068C44E40F20241454526DA22
:107370003046FDF722FF0020494605E03A180A444E
:1073800092F8D6273254401CA842F7DB70195646B3
:1073900010F8012CB9A0DAF81C1000F0A3FEE817D1
:1073A00005EB9070F16982100BEB8120B24900F07F
:1073B0007FFE2946B6A000F095FE347084E745456F
:1073C00088D1AD48FDF7F9FE002049463A180A4435
:1073D00092F8D6273254401C4045F7DB96F8FF233D
:1073E0005546A6A0DAF81C1000F07CFEE9694FF4BF
:1073F00080720BEB8120A04900F05AFEE869401C26
:10740000E861A87968712C7164E73078012807D1A8
:107410003570A8A000F066FE00F020FBFEF74EFFDE
:1074200086F806A086F8058053E786F8068086F879
:1074300005B04EE72520FEF704FFA5480168CA689D
:1074400042F02002CA600168CA6842F01002CA60B5
:10745000006801684068009040F2DC52B91D9C4809
:10746000FFF7E2FB35714FF47A71002000F0E6FA85
:10747000BDE8F84F97A000F035BE9FA000F032FEA7
:107480003D70BD8035714FF42F7158E09EA000F023
:1074900029FE747035711DE7132810D014283BD1D4
:1074A0001CE000F09FF900F009FA35E09AA1484687
:1074B000FDF78EFE48B30B20B0710C2023E09AA19B
:1074C0004846FDF785FE00B349469BA000F00AFE42
:1074D000757086F8068086F805B015E092A14846DA
:1074E000FDF776FE88B149469BA000F0FBFD757064
:1074F000D7E7A0A14846FDF76BFE30B17570B079B3
:10750000401CB071401C7071347105E09DA148466B
:10751000FDF75EFE00B17570B179022201EB410307
:107520000AEB83008272B07870B1401EC2B2B270B2
:1075300096A000F0D7FDB079707134714621BDE896
:10754000F84F002000F07ABA96A000F0CBFDB07999
:10755000102804D19DA000F0C5FD3D70BD80122013
:10756000B0717571B5E6000000000020EC06002047
:107570005C200020404020B3ACCAB14572726F72EB
:10758000BDD3CAD53A25730D0A000000404020D76C
:10759000A4CDF8CDEAB3C92E2E2E0D0A00000000AE
:1075A000B20500200D0A0000494D45493A2000006F
:1075B000494D454900000000303030303030303027
:1075C0003030303030303030303030303030300DDE
:1075D0000A000000434954435F454E440000000048
:1075E00053544152543A000046696E645F427566D6
:1075F0003A25737D0D0A00002C000000696D656955
:107600003A00000046696E645F494D45493A25736A
:107610000D0A0000746F6B656E3A000046696E6477
:107620005F746F6B656E3A25730D0A002573000059
:10763000444154412C00000046696E645F42756607
:107640003A256C750D0A000000F00008BFAACABCFC
:10765000B2C1B3FD415050C7F8D3F22E2E2E0D0A01
:10766000000000008618002062696E5F6275663A4D
:107670002000000025782000B0010020C9D5C2BC40
:10768000B5DA2564B0FC25782E2E2E2E2E0D0A009C
:10769000D7EEBAF3256C75C9D5C2BCCDEAB3C92EF5
:1076A0002E2E2E2ED7BCB1B8D6D8C6F42E2E2E0D27
:1076B0000A000000D2D1B6CFBFAA48545450A3ACA0
:1076C000BFAACABCD6D8C6F42E2E2E2E0D0A000094
:1076D000043300202A2A2A2A2A2A2A2A2A2A2A2A5B
:1076E0002AB6A9D4C4B3C9B9A62CB5C8B4FDC9CFAC
:1076F000B1A80D0A00000000C9CFB1A8B3C9B9A64E
:107700002E2E2E0D0A000000D7D4BCECD5FDB3A35D
:107710002E2E2E0D0A0000002B434D515454444987
:1077200053433A20302C30002B434D51545444499C
:1077300053433A20302C3100D7D4BCECCAA7B0DC7C
:107740002E4D515454C1ACBDD3D2ECB3A32E2573EE
:107750002E2E2E0D0A000000D7D4BCECCAA7B0DC38
:107760002E53494DBFA8D2ECB3A32E25732E2E2E37
:107770000D0A00002B434D51545453544152543A76
:10778000203233004552524F520000004040206EDC
:107790006F773A25642C74727974696D653A256443
:1077A0000D0A00002A2A2A2A2A2A2A2A2A2A2A0DE7
:1077B0000AD6D8B7A2BBFABBE1D2D1D3C3BEA12EA1
:1077C0004944A3BA25642E2E0D0A0000C9CFB1A8E2
:1077D000D2ECB3A3A3ACC7E5BFD5B4AEBFDA310DCD
:1077E0000A0000002DE9F041274D4FF480440022AB
:1077F00021462846FEF7AFFC6420FEF7EFFA01228F
:1078000021462846FEF7A7FC40F6B830FEF7E6FA18
:10781000002221462846FEF79EFC1C4F0024C8206B
:10782000FEF7DCFA1AA000F05DFC01213846FEF7F5
:107830008DFC20B1641CA4B2AA2CF0D302E018A0E5
:1078400000F050FC4FF480654FF47A763C460121FD
:107850002046FEF77BFC012813D100222946204652
:10786000FEF779FC3046FEF7B9FA01222946204698
:10787000FEF771FC3046FEF7B1FA0DA000F032FCC5
:10788000E5E7BDE8F0810000000C01400010014078
:10789000BCECB2E2CAC7B7F1B9D8BBFA0D0A000016
:1078A000436C6F736520537563636573730D0A00D2
:1078B000B5C8B4FDB9D8BBFA0D0A00002DE9F041F6
:1078C000224C01212046FEF741FC08B120A01DE01A
:1078D00000F090F800256420FEF780FA1FA000F069
:1078E00001FC01212046FEF731FC18B96D1CEDB2F8
:1078F000C82DF0D34FF4806540F6C4164FF4FA67F4
:1079000001212046FEF722FC68B118A000F0EAFB36
:10791000184801220021027181714271BDE8F041D5
:1079200015A000F0DFBB002229462046FEF713FC1D
:107930003046FEF753FA012229462046FEF70BFC9B
:107940003846FEF74BFA00F055F8D9E70010014031
:10795000D2D1BFAABBFA0D0A00000000BCECB2E213
:10796000CAC7B7F1BFAABBFA0D0A00006F70656EF7
:107970000D0A00000000002023232325640D0A00C7
:1079800010B5194C207948B1012818D002282AD105
:10799000FDF75CFDBDE81040FFF7EABB1248383048
:1079A000FDF777FE08B100F09BFE0F483030FDF781
:1079B00070FE002817D0BDE8104000F05BB8A07939
:1079C0006179884207D0084A00EB4001403202EB5F
:1079D0008101C97AA170FDF769FDA17903A000F0CA
:1079E00081FB0220207110BD000000202A2A2A25D8
:1079F000640D0A0070B541F28830FEF7EFF90D4DC5
:107A00004FF48044002221462846FEF7A4FB642060
:107A1000FEF7E4F9012221462846FEF79CFB4FF4CD
:107A20001670FEF7DBF921462846BDE870400022BB
:107A3000FEF791BB000C014070470000024B012291
:107A40001A54981E018070479201002070B50D46AF
:107A50000446FEF785FBC4E9000570BD08B54FF08C
:107A6000AA30009001226946014800F021FB08BDC0
:107A7000FC8F010810B501211548FEF767FB90B196
:107A8000144C132047F23051A0711420607104F19E
:107A90003000FFF7DBFF01202071C821BDE8104056
:107AA0000020FFF7CBBF0CA000F01CFB4FF4FA60E6
:107AB000FEF794F9BFF34F8F15480168154A01F49A
:107AC000E06111430160BFF34F8F00BFFDE700008D
:107AD00000100140000000205B2020537973746582
:107AE0006D20205D203A2053494D373630304345D4
:107AF00020506F776572204572726F722C576169E2
:107B00007420327320526573746172740D0A000020
:107B10000CED00E00400FA05FEF728BB30B58FB08D
:107B200028216846FDF749FB14210AA8FDF745FB0B
:107B300001210804CDE900100024029402250491DB
:107B4000CDE907504FF4E01009906846FEF7D4FCE9
:107B50000F20CDE90A056802CDE90C4002210AA8F0
:107B60000E94FEF7BDFB0FB030BD00000D4801685C
:107B700041F00101016041680B4A11404160016818
:107B80000A4A11400160016821F4802101604168C6
:107B900021F4FE0141604FF41F0181600449C003DC
:107BA00008607047001002400000FFF8FFFFF6FE7B
:107BB00008ED00E010B5406A0021C185C184FEF7E0
:107BC0005DFE10BD70B5446A2068406994F83910B4
:107BD000C0F3C0100025212904D118B1E584204646
:107BE00000F046F82068406994F83A10C0F380101D
:107BF000222904D118B1E585204600F02BF8E06B6E
:107C000040F01000E0632046FEF738FE70BD10B56E
:107C10000146406A09680968890613D40021C185B4
:107C20000168CA6822F48072CA6001684A6922F059
:107C300001024A6101684A6922F040024A6120213A
:107C400080F83A10FFF73CF810BD10B5406AFFF716
:107C5000C7F810BD0168CA6822F49072CA60016852
:107C60004A6922F001024A61202180F83A107047E7
:107C70000168CA6822F0C002CA60202180F8391069
:107C8000704710B590F83A10222901D0022010BD9B
:107C90008168B1F5805F11D00169002901681FD0AA
:107CA000496801F07F03816A4A1C82620B70C18DB2
:107CB000491E0904090CC18518D02BE00269816AAC
:107CC000002A0268526805D0D2B20A80816A491C33
:107CD0008162ECE7C2F308020A80816A891CF7E737
:107CE0004A68816A4B1C83620A70E0E70168CA68CF
:107CF00022F02002CA600168CA6822F48072CA6059
:107D000001684A6922F001024A61202180F83A1094
:107D1000FEF7D6FF002010BD2DE9F04104460068B3
:107D20000169E26821F44051114301612169A068B1
:107D30000843616908432168CA6841F20C639A43A9
:107D40000243CA6020684169A26921F4407111436D
:107D500041614C4920686425322688423CD1FEF7B7
:107D600085FB00EBC00101EB001061688900B0FBEE
:107D7000F1F7FEF77BFB00EBC00101EB001061683F
:107D8000B0468900B0FBF1F0B0FBF5F06FF01801E0
:107D9000484307EB800106EB0110B0FBF5F000F063
:107DA000F006FEF763FB00EBC00101EB0010616819
:107DB0008900B0FBF1F0B0FBF5F006EB0016FEF722
:107DC00055FB00EBC00101EB001061688900B0FBBE
:107DD000F1F7FEF74BFB3BE0FEF738FB00EBC00191
:107DE00001EB001061688900B0FBF1F7FEF72EFB94
:107DF00000EBC00101EB00106168B0468900B0FBE8
:107E0000F1F0B0FBF5F06FF01801484307EB80018B
:107E100006EB0110B0FBF5F000F0F006FEF716FBE4
:107E200000EBC00101EB001061688900B0FBF1F0CC
:107E3000B0FBF5F006EB0016FEF708FB00EBC00107
:107E400001EB001061688900B0FBF1F7FEF7FEFA64
:107E500000EBC00101EB001061688900B0FBF1F09C
:107E6000B0FBF5F06FF01801484307EB800108EB19
:107E70000110B0FBF5F0216800F00F00304488607D
:107E8000BDE8F0810038014090F83910212901D077
:107E9000022070478168B1F5805F016A0BD04A1CEF
:107EA0000262026809785160C18C491E0904090CFC
:107EB000C1840ED017E009880268C1F3080151603F
:107EC00001690029016A02D0491C0162ECE7891CA2
:107ED000FBE70168CA6822F08002CA600068C168D6
:107EE00041F04001C160002070472DE9F041984603
:107EF00017460E460446069D1DE0681C1BD02DB19A
:107F0000FEF72EF9A0EB0800A84214D92068C1683A
:107F100021F4D071C1602068416921F00101416103
:107F2000202084F8390084F83A00002084F83800D2
:107F30000320BDE8F0812068006836EA000004D024
:107F40000020B842D9D00020F3E70120F9E7000073
:107F500038B5124D28680168114CC943C90612D4BE
:107F60000168406800902846FEF75CFC28680168BC
:107F700040680C4800684068A0F2DC5040426080D5
:107F80002846FEF79DFE0548FEF77AFCA11DBDE8D8
:107F9000384040F2DC520148FEF746BE0433002070
:107FA000EC060020C433002038B5124D2868016863
:107FB000114CC943C90612D4016840680090284694
:107FC000FEF730FC2868016840680C48006840688B
:107FD00080B2C0F5FA6060802846FEF771FE054861
:107FE000FEF74EFCA11DBDE838404FF4FA6201488F
:107FF000FEF71ABE44330020861800204C340020BF
:1080000038B5124D28680168114CC943C90612D40D
:108010000168406800902846FEF704FC2868016863
:1080200040680C480068406880B2C0F5807060808D
:108030002846FEF745FE0548FEF722FCA11DBDE8D7
:1080400038404FF480720148FEF7EEBD84330020C3
:10805000FC2F0020D43400200F490878012819D1C2
:108060000E4802780020012A07D0002A12D1087099
:10807000888032210020FFF7E1BC087008490D20FC
:10808000087008490E2008700749012008704FF455
:10809000FA71EFE770470000EC06002001000020B5
:1080A000060000200500002004000020FEE700007C
:1080B0002DE9F04115460E460746FDF73FFF002427
:1080C00009E000BF56F8242007EB840100230220BA
:1080D000FDF7F4FE641CAC42F4DBBDE8F041FDF7B3
:1080E000E3BE00000FB4054B10B503A9044A029883
:1080F00000F030F810BC5DF814FB0000218400088B
:10810000A80100200FB4084B10B504A902AA0398D7
:1081100000F020F8044602A9002000F07BF9204678
:1081200010BC5DF814FB000015840008004870477F
:10813000AC01002002E008C8121F08C1002AFAD1D1
:1081400070477047002001E001C1121F002AFBD1D7
:10815000704700002DE9FF4F8DB09B460F46044647
:10816000002606E025280BD05A460F999047641C3C
:10817000761C20780028F5D111B03046BDE8F08F8C
:108180000025A8460122984900E0054314F8013F64
:10819000203B02FA03F00842F7D120782E2817D1AD
:1081A00014F8010F45F004052A280ED06FF02F02B5
:1081B0002078A0F1300109290AD808EB880102EBE8
:1081C000410100EB0108641CF2E757F8048B641CC2
:1081D00020786C280DD004DC4C2812D06A2811D1EC
:1081E00004E074280DD07A280CD10AE045F400157B
:1081F00007E0617845F48015814202D1641C05F5E1
:108200008015641C2278692A45D008DC002AB3D086
:10821000582A69D0632A10D0642A08D13BE0702A1A
:1082200067D0732A13D0752A5CD0782A5CD01046A8
:108230005A460F999047761CD3E017F8040B8DF837
:10824000000000208DF80100E946012003E057F806
:10825000049B4FF0FF3069074FF0000501D40AE09E
:108260006D1C45450DDA8542FADB19F80510002929
:10827000F6D106E06D1C8542FCDB19F805100029DB
:10828000F8D12E4404E019F8010B5A460F99904793
:108290006D1EF8D2A5E00A200021CDE90801C5F342
:1082A000025002280DD001CFC117031E71F1000347
:1082B0000DDA4FF0000CD0EB0C006CEB01012D231C
:1082C00008E0FF1D27F00707F7E80201EDE72B059F
:1082D00004D52B238DF8283001233BE0EB0739D060
:1082E0002023F7E70A2000E010200021CDE9080153
:1082F00007E01020002145F00405CDE908014FF00A
:108300000808C5F3025002280FD001CF00214FF01A
:10831000000A2B071FD5702A0DD0DDE908C38CF0A9
:10832000100C5CEA030C0CD015E0FF1D27F00707CA
:10833000F7E80201EBE740228DF828204FF0010A10
:108340000BE050EA010306D030238DF828308DF879
:10835000292002239A46582A04D024A20DF120098C
:108360000B9209E026A2F9E7DDE90823FCF756FFA6
:108370000B9B9B5C09F8013D50EA0102F4D1ADEB87
:10838000090020300890680701D44FF001080899CF
:10839000884502DDA8EB010000E0002080460025B2
:1083A00006E00AA85A46405D0F9990476D1C761C5E
:1083B0005545F6DB04E030205A460F999047761C6D
:1083C000B8F10001A8F10108F5DC05E019F8010B8E
:1083D0005A460F999047761C0899481E0890002924
:1083E000F4DC641CC5E6000009280100303132339A
:1083F00034353637383961626364656600000000E1
:1084000030313233343536373839414243444546CA
:10841000000000000A68531C0B60107070470000D9
:1084200013B54FF6FF73012269460248FEF7D9FCE7
:1084300000981CBD843300201B491A480860FDF7D2
:108440009DFEFFF76BFBFEF7A1FDFEF769FDFEF752
:1084500005FEFEF71FFEFEF739FEFDF75BF9FFF79D
:108460002DFA4FF47A70FDF7B9FC10A0FFF73AFE31
:108470000FA0FFF737FE18A0FFF734FE20A0FFF78C
:1084800031FE15A0FFF72EFE09A0FFF72BFE00BF5F
:10849000FFF776FAFFF7E0FDFEF71AFDFEF756FE4E
:1084A000F6E700000050000808ED00E00D0A0000AB
:1084B0002A2A2A2A2A2A2A2A2A2A2A2A2A2A2A2A1C
:1084C0002A2A2A2A2A2A2A2A2A2A2A2A2A2A2A2A0C
:1084D0002A2A2A0D0A0000002A20202020202020FD
:1084E000202020202020202020202020202020208C
:1084F000202020202020202020202A0D0A000000FB
:108500002A20202020434954435F344744545520B7
:10851000202076657273696F6E20332E3020202004
:1085200020202A0D0A0000002DE9F04100683B4997
:108530003B4F01243B4D4FF47A76884244D13AA117
:108540002846FCF745FE98B13878002863D039A159
:1085500047A0FFF7C7FD3046FDF740FC3046FDF76A
:108560003DFC3046FDF73AFC84F31388FEF7DCFD52
:1085700045A12846FCF72CFE00284BD144A12846F3
:10858000FCF726FE002845D144A12846FCF720FE32
:1085900000283FD144A12846FCF71AFE002839D113
:1085A00045A12846FCF714FE002833D145A12846F2
:1085B000FCF70EFE00282DD14648FF23294682886D
:1085C0004548FEF70EFC25E04449884222D116A119
:1085D0002846FCF7FDFD0028B6D12BA12846FCF764
:1085E000F7FDB8B92AA12846FCF7F2FD90B92BA1F6
:1085F0002846FCF7EDFD68B92BA12846FCF7E8FDFD
:1086000040B92DA12846FCF7E3FD18B92DA1284655
:10861000FCF7DEFD0020BDE8F081000000440040D2
:10862000950100205C200020434954432B534554BE
:10863000414C4C00434954435F736574696E675FF6
:1086400073756363657373210D0A52657374617288
:10865000742074686520646576696365206166745A
:1086600065722033207365636F6E6473212121006E
:108670000D0A4241434B5F434954435F4F4B210D29
:108680000A7B25737D0D0A00434954432B49500052
:10869000434954432B504F52540000004349544324
:1086A0002B55534552000000434954432B5041532E
:1086B00053574F5244000000434954432B544F50EA
:1086C00049430000434954432B56455253494F4EAA
:1086D00000000000861800200433002000480040FD
:1086E00010B54FF47A710448FFF7B0F9C821BDE81E
:1086F00010400020FFF7A2B938000020000402005B
:10870000040000000000000000000102030406074E
:1087100008090000000001020304004040404040FE
:108720004040404041414141414040404040404044
:10873000404040404040404040404005020202026C
:108740000202020202020202020202202020202073
:10875000202020202002020202020202909090902B
:108760009090101010101010101010101010101009
:10877000101010101010020202020202888888886D
:108780008888080808080808080808080808080869
:108790000808080808080202020240001B870008B7
:1087A00041542B48545450504152413D2255524C53
:1087B000222C22687474703A2F2F3130362E3133C8
:1087C0002E3135302E32383A313838302F53544D1F
:1087D00033324941503F696D65693D3447445455D2
:1087E000220D0A0041542B4346554E3D312C300D8D
:1087F0000A00000041542B434D5154545055423D02
:10880000302C312C36300D0A0000000041542B482A
:10881000545450414354494F4E3D300D0A0000001E
:10882000415445300D0A000041542B4854545052D5
:108830004541443D302C313032340D0A00000000F7
:1088400041542B434D515454444953433F0D0A0066
:1088500041542B435245473F0D0A000041542B43DE
:10886000434C4B3F0D0A000041542B4350494E3FAF
:108870000D0A00004154490D0A00000041542B48E4
:108880005454505445524D0D0A00000041542B439E
:1088900053510D0A0000000041540D0A0000000071
:1088A00041542B4352455345540D0A0041542B4823
:1088B000545450494E49540D0A00000041542B4372
:1088C0004D51545453544152540D0A000D0A0000A6
:1088D00041542B434D5154545355423D302C0000CC
:1088E00041542B434D515454544F5049433D302C27
:1088F0000000000041542B434D5154545041594CF9
:108900004F41443D302C000041542B434D515454B1
:10891000414343513D302C0041542B434D5154545D
:10892000434F4E4E4543543D302C00002B434D5198
:10893000545453544152543A203000002B434D516B
:108940005454444953433A20302C30002B4854545B
:1089500050414354494F4E3A20302C3230300000C1
:108960002B434D515454444953433A20302C310049
:108970002B435245473A20302C31000031383833F0
:10898000000000003130362E31332E3135302E329A
:10899000380000003E000000485454505245414405
:1089A0003A204441544100002B434D5154545055FA
:1089B000420000004F4B00004552524F5200000051
:1089C0002B4350494E3A2052454144590000000083
:1089D000524541445900000076312F646576696341
:1089E00065732F6F746100007954376D6B6539586A
:1089F000706A000076312F646576696365732F6D48
:108A0000652F74656C656D65747279002C8A000839
:108A100000000020B0010000F6530008E88A0008BA
:108A2000B001002088430000448100088113E889D8
:108A30001B0884041A7C041AF4041AD804012413B1
:108A400098881B08B42C12C89C03648C0C9A200CC8
:108A50001A680C4AD00C8B035C188C03E4870C1A40
:108A600050184A700C1B96400C1A600C5EE8030309
:108A700005BC30190C1B0308081A2C041EB80B0384
:108A800003180869181AD0244A94189B06CC305A47
:108A9000E0181954AA08185AF418296069181BD04C
:108AA000071819905AA8241AA0181AC00C2D881358
:108AB0000301905A3C18A9CC9A74548AAC485B05BF
:108AC000A0D829541A0C185A4C0C1A280C4A980C85
:108AD0001B287C0C5AB8185A983C19546464F40149
:088AE0002907821084A24A0458
:04000005080051316D
:00000001FF
