Component: ARM Compiler 5.06 update 6 (build 750) Tool: armlink [4d35ed]

==============================================================================

Section Cross References

    startup_stm32f103xe.o(RESET) refers to startup_stm32f103xe.o(STACK) for __initial_sp
    startup_stm32f103xe.o(RESET) refers to startup_stm32f103xe.o(.text) for Reset_Handler
    startup_stm32f103xe.o(RESET) refers to stm32f1xx_it.o(i.NMI_Handler) for NMI_Handler
    startup_stm32f103xe.o(RESET) refers to stm32f1xx_it.o(i.HardFault_Handler) for HardFault_Handler
    startup_stm32f103xe.o(RESET) refers to stm32f1xx_it.o(i.MemManage_Handler) for MemManage_Handler
    startup_stm32f103xe.o(RESET) refers to stm32f1xx_it.o(i.BusFault_Handler) for BusFault_Handler
    startup_stm32f103xe.o(RESET) refers to stm32f1xx_it.o(i.UsageFault_Handler) for UsageFault_Handler
    startup_stm32f103xe.o(RESET) refers to stm32f1xx_it.o(i.SVC_Handler) for SVC_Handler
    startup_stm32f103xe.o(RESET) refers to stm32f1xx_it.o(i.DebugMon_Handler) for DebugMon_Handler
    startup_stm32f103xe.o(RESET) refers to stm32f1xx_it.o(i.PendSV_Handler) for PendSV_Handler
    startup_stm32f103xe.o(RESET) refers to stm32f1xx_it.o(i.SysTick_Handler) for SysTick_Handler
    startup_stm32f103xe.o(RESET) refers to stm32f1xx_it.o(i.RCC_IRQHandler) for RCC_IRQHandler
    startup_stm32f103xe.o(RESET) refers to stm32f1xx_it.o(i.DMA1_Channel3_IRQHandler) for DMA1_Channel3_IRQHandler
    startup_stm32f103xe.o(RESET) refers to stm32f1xx_it.o(i.DMA1_Channel4_IRQHandler) for DMA1_Channel4_IRQHandler
    startup_stm32f103xe.o(RESET) refers to stm32f1xx_it.o(i.DMA1_Channel5_IRQHandler) for DMA1_Channel5_IRQHandler
    startup_stm32f103xe.o(RESET) refers to stm32f1xx_it.o(i.DMA1_Channel6_IRQHandler) for DMA1_Channel6_IRQHandler
    startup_stm32f103xe.o(RESET) refers to stm32f1xx_it.o(i.DMA1_Channel7_IRQHandler) for DMA1_Channel7_IRQHandler
    startup_stm32f103xe.o(RESET) refers to stm32f1xx_it.o(i.USART1_IRQHandler) for USART1_IRQHandler
==============================================================================

Removing Unused input sections from the image.

    Removing startup_stm32f103xe.o(HEAP), (1024 bytes).
    Removing sim7600.o(.rev16_text), (4 bytes).
    Removing sim7600.o(.revsh_text), (4 bytes).
    Removing sim7600.o(.rrx_text), (6 bytes).
    Removing sim7600.o(i.MQTTSendData), (4 bytes).
    Removing my_string.o(.rev16_text), (4 bytes).
    Removing my_string.o(.revsh_text), (4 bytes).
    Removing my_string.o(.rrx_text), (6 bytes).
    Removing my_string.o(i.Find_AttributeStringAll), (208 bytes).
    Removing my_string.o(i.smart_array), (44 bytes).
    Removing hexstr.o(.rev16_text), (4 bytes).
    Removing hexstr.o(.revsh_text), (4 bytes).
    Removing hexstr.o(.rrx_text), (6 bytes).
    Removing hexstr.o(i.Str2Hex), (66 bytes).
    Removing hexstr.o(i.Value2Hex), (26 bytes).
    Removing hexstr.o(i.str2hex), (80 bytes).
    Removing time.o(.rev16_text), (4 bytes).
    Removing time.o(.revsh_text), (4 bytes).
==============================================================================

Image Symbol Table

    Local Symbols

    Symbol Name                              Value     Ov Type        Size  Object(Section)

    ../Drivers/STM32F1xx_HAL_Driver/Src/stm32f1xx_hal.c 0x00000000   Number         0  stm32f1xx_hal.o ABSOLUTE
    ../Drivers/STM32F1xx_HAL_Driver/Src/stm32f1xx_hal_cortex.c 0x00000000   Number         0  stm32f1xx_hal_cortex.o ABSOLUTE
    ../Drivers/STM32F1xx_HAL_Driver/Src/stm32f1xx_hal_dma.c 0x00000000   Number         0  stm32f1xx_hal_dma.o ABSOLUTE
    ../Drivers/STM32F1xx_HAL_Driver/Src/stm32f1xx_hal_flash.c 0x00000000   Number         0  stm32f1xx_hal_flash.o ABSOLUTE
    ../Drivers/STM32F1xx_HAL_Driver/Src/stm32f1xx_hal_flash_ex.c 0x00000000   Number         0  stm32f1xx_hal_flash_ex.o ABSOLUTE
    ../Drivers/STM32F1xx_HAL_Driver/Src/stm32f1xx_hal_gpio.c 0x00000000   Number         0  stm32f1xx_hal_gpio.o ABSOLUTE
    ../Drivers/STM32F1xx_HAL_Driver/Src/stm32f1xx_hal_gpio_ex.c 0x00000000   Number         0  stm32f1xx_hal_gpio_ex.o ABSOLUTE
    ../Drivers/STM32F1xx_HAL_Driver/Src/stm32f1xx_hal_pwr.c 0x00000000   Number         0  stm32f1xx_hal_pwr.o ABSOLUTE
    ../Drivers/STM32F1xx_HAL_Driver/Src/stm32f1xx_hal_rcc.c 0x00000000   Number         0  stm32f1xx_hal_rcc.o ABSOLUTE
    ../Drivers/STM32F1xx_HAL_Driver/Src/stm32f1xx_hal_rcc_ex.c 0x00000000   Number         0  stm32f1xx_hal_rcc_ex.o ABSOLUTE
    ../Drivers/STM32F1xx_HAL_Driver/Src/stm32f1xx_hal_tim.c 0x00000000   Number         0  stm32f1xx_hal_tim.o ABSOLUTE
    ../Drivers/STM32F1xx_HAL_Driver/Src/stm32f1xx_hal_tim_ex.c 0x00000000   Number         0  stm32f1xx_hal_tim_ex.o ABSOLUTE
    ../Drivers/STM32F1xx_HAL_Driver/Src/stm32f1xx_hal_uart.c 0x00000000   Number         0  stm32f1xx_hal_uart.o ABSOLUTE
    ../Src/dma.c                             0x00000000   Number         0  dma.o ABSOLUTE
    ../Src/gpio.c                            0x00000000   Number         0  gpio.o ABSOLUTE
    ../Src/main.c                            0x00000000   Number         0  main.o ABSOLUTE
    ../Src/stm32f1xx_hal_msp.c               0x00000000   Number         0  stm32f1xx_hal_msp.o ABSOLUTE
    ../Src/stm32f1xx_it.c                    0x00000000   Number         0  stm32f1xx_it.o ABSOLUTE
    ../Src/system_stm32f1xx.c                0x00000000   Number         0  system_stm32f1xx.o ABSOLUTE
    ../Src/usart.c                           0x00000000   Number         0  usart.o ABSOLUTE
    ../clib/../cmprslib/zerorunl2.c          0x00000000   Number         0  __dczerorl2.o ABSOLUTE
    ../clib/microlib/ctype/ctype.c           0x00000000   Number         0  islower_o.o ABSOLUTE
    ../clib/microlib/ctype/ctype.c           0x00000000   Number         0  isgraph_o.o ABSOLUTE
    ../clib/microlib/ctype/ctype.c           0x00000000   Number         0  isdigit_o.o ABSOLUTE
    ../clib/microlib/ctype/ctype.c           0x00000000   Number         0  isupper_o.o ABSOLUTE
    ../clib/microlib/ctype/ctype.c           0x00000000   Number         0  isxdigit_o.o ABSOLUTE
    ../clib/microlib/ctype/ctype.c           0x00000000   Number         0  iscntrl_o.o ABSOLUTE
    ../clib/microlib/ctype/ctype.c           0x00000000   Number         0  ispunct_o.o ABSOLUTE
    ../clib/microlib/ctype/ctype.c           0x00000000   Number         0  isalpha_o.o ABSOLUTE
    ../clib/microlib/ctype/ctype.c           0x00000000   Number         0  ctype_o.o ABSOLUTE
    ../clib/microlib/ctype/ctype.c           0x00000000   Number         0  isalnum_o.o ABSOLUTE
    ../clib/microlib/ctype/ctype.c           0x00000000   Number         0  isblank_o.o ABSOLUTE
    ../clib/microlib/ctype/ctype.c           0x00000000   Number         0  isprint_o.o ABSOLUTE
    ../clib/microlib/ctype/ctype.c           0x00000000   Number         0  isspace_o.o ABSOLUTE
    ../clib/microlib/division.c              0x00000000   Number         0  uldiv.o ABSOLUTE
    ../clib/microlib/division.c              0x00000000   Number         0  uidiv.o ABSOLUTE
    ../clib/microlib/errno.c                 0x00000000   Number         0  errno.o ABSOLUTE
    ../clib/microlib/init/entry.s            0x00000000   Number         0  entry11b.o ABSOLUTE
    ../clib/microlib/init/entry.s            0x00000000   Number         0  entry2.o ABSOLUTE
    ../clib/microlib/init/entry.s            0x00000000   Number         0  entry9a.o ABSOLUTE
    ../clib/microlib/init/entry.s            0x00000000   Number         0  entry9b.o ABSOLUTE
    ../clib/microlib/init/entry.s            0x00000000   Number         0  entry5.o ABSOLUTE
    ../clib/microlib/init/entry.s            0x00000000   Number         0  entry11a.o ABSOLUTE
    ../clib/microlib/init/entry.s            0x00000000   Number         0  entry10b.o ABSOLUTE
    ../clib/microlib/init/entry.s            0x00000000   Number         0  entry7a.o ABSOLUTE
    ../clib/microlib/init/entry.s            0x00000000   Number         0  entry10a.o ABSOLUTE
    ../clib/microlib/init/entry.s            0x00000000   Number         0  entry7b.o ABSOLUTE
    ../clib/microlib/init/entry.s            0x00000000   Number         0  entry.o ABSOLUTE
    ../clib/microlib/init/entry.s            0x00000000   Number         0  entry8a.o ABSOLUTE
    ../clib/microlib/init/entry.s            0x00000000   Number         0  entry8b.o ABSOLUTE
    ../clib/microlib/longlong.c              0x00000000   Number         0  llushr.o ABSOLUTE
    ../clib/microlib/longlong.c              0x00000000   Number         0  llsshr.o ABSOLUTE
    ../clib/microlib/longlong.c              0x00000000   Number         0  llshl.o ABSOLUTE
    ../clib/microlib/printf/printf.c         0x00000000   Number         0  printfa.o ABSOLUTE
    ../clib/microlib/printf/printf.c         0x00000000   Number         0  printf0.o ABSOLUTE
    ../clib/microlib/printf/printf.c         0x00000000   Number         0  printf1.o ABSOLUTE
    ../clib/microlib/printf/printf.c         0x00000000   Number         0  printfb.o ABSOLUTE
    ../clib/microlib/printf/printf.c         0x00000000   Number         0  printf5.o ABSOLUTE
    ../clib/microlib/printf/printf.c         0x00000000   Number         0  printf2.o ABSOLUTE
    ../clib/microlib/printf/printf.c         0x00000000   Number         0  printf3.o ABSOLUTE
    ../clib/microlib/printf/printf.c         0x00000000   Number         0  printf4.o ABSOLUTE
    ../clib/microlib/printf/printf.c         0x00000000   Number         0  printf6.o ABSOLUTE
    ../clib/microlib/printf/printf.c         0x00000000   Number         0  printf7.o ABSOLUTE
    ../clib/microlib/printf/printf.c         0x00000000   Number         0  printf8.o ABSOLUTE
    ../clib/microlib/printf/stubs.s          0x00000000   Number         0  stubs.o ABSOLUTE
    ../clib/microlib/stdio/streams.c         0x00000000   Number         0  stdout.o ABSOLUTE
    ../clib/microlib/string/memcpy.c         0x00000000   Number         0  memcpya.o ABSOLUTE
    ../clib/microlib/string/memcpy.c         0x00000000   Number         0  memcpyb.o ABSOLUTE
    ../clib/microlib/string/memset.c         0x00000000   Number         0  memseta.o ABSOLUTE
    ../clib/microlib/string/strcmp.c         0x00000000   Number         0  strcmp.o ABSOLUTE
    ../clib/microlib/string/strcpy.c         0x00000000   Number         0  strcpy.o ABSOLUTE
    ../clib/microlib/string/strlen.c         0x00000000   Number         0  strlen.o ABSOLUTE
    ../clib/microlib/string/strstr.c         0x00000000   Number         0  strstr.o ABSOLUTE
    ../clib/microlib/string/strtok.c         0x00000000   Number         0  strtok_r.o ABSOLUTE
    ../clib/microlib/string/strtok.c         0x00000000   Number         0  strtok.o ABSOLUTE
    ../clib/microlib/stubs.s                 0x00000000   Number         0  iusefp.o ABSOLUTE
    ../clib/scanf.c                          0x00000000   Number         0  atoi.o ABSOLUTE
    ../clib/scanf.c                          0x00000000   Number         0  _strtoul.o ABSOLUTE
    ../clib/scanf.c                          0x00000000   Number         0  strtol.o ABSOLUTE
    ../clib/scanf.c                          0x00000000   Number         0  _chval.o ABSOLUTE
    ../fplib/microlib/fpadd.c                0x00000000   Number         0  dadd.o ABSOLUTE
    ../fplib/microlib/fpdiv.c                0x00000000   Number         0  ddiv.o ABSOLUTE
    ../fplib/microlib/fpepilogue.c           0x00000000   Number         0  depilogue.o ABSOLUTE
    ../fplib/microlib/fpfix.c                0x00000000   Number         0  dfixul.o ABSOLUTE
    ../fplib/microlib/fpmul.c                0x00000000   Number         0  dmul.o ABSOLUTE
    ..\Drivers\HEXSTR\HEXSTR.c               0x00000000   Number         0  hexstr.o ABSOLUTE
    ..\Drivers\LED\led.c                     0x00000000   Number         0  led.o ABSOLUTE
    ..\Drivers\My_string\my_string.c         0x00000000   Number         0  my_string.o ABSOLUTE
    ..\Drivers\SIM7600_deiver\SIM7600.c      0x00000000   Number         0  sim7600.o ABSOLUTE
    ..\Drivers\STM32F1xx_HAL_Driver\Src\stm32f1xx_hal.c 0x00000000   Number         0  stm32f1xx_hal.o ABSOLUTE
    ..\Drivers\STM32F1xx_HAL_Driver\Src\stm32f1xx_hal_cortex.c 0x00000000   Number         0  stm32f1xx_hal_cortex.o ABSOLUTE
    ..\Drivers\STM32F1xx_HAL_Driver\Src\stm32f1xx_hal_dma.c 0x00000000   Number         0  stm32f1xx_hal_dma.o ABSOLUTE
    ..\Drivers\STM32F1xx_HAL_Driver\Src\stm32f1xx_hal_flash.c 0x00000000   Number         0  stm32f1xx_hal_flash.o ABSOLUTE
    ..\Drivers\STM32F1xx_HAL_Driver\Src\stm32f1xx_hal_flash_ex.c 0x00000000   Number         0  stm32f1xx_hal_flash_ex.o ABSOLUTE
    ..\Drivers\STM32F1xx_HAL_Driver\Src\stm32f1xx_hal_gpio.c 0x00000000   Number         0  stm32f1xx_hal_gpio.o ABSOLUTE
    ..\Drivers\STM32F1xx_HAL_Driver\Src\stm32f1xx_hal_gpio_ex.c 0x00000000   Number         0  stm32f1xx_hal_gpio_ex.o ABSOLUTE
    ..\Drivers\STM32F1xx_HAL_Driver\Src\stm32f1xx_hal_pwr.c 0x00000000   Number         0  stm32f1xx_hal_pwr.o ABSOLUTE
    ..\Drivers\STM32F1xx_HAL_Driver\Src\stm32f1xx_hal_rcc.c 0x00000000   Number         0  stm32f1xx_hal_rcc.o ABSOLUTE
    ..\Drivers\STM32F1xx_HAL_Driver\Src\stm32f1xx_hal_rcc_ex.c 0x00000000   Number         0  stm32f1xx_hal_rcc_ex.o ABSOLUTE
    ..\Drivers\STM32F1xx_HAL_Driver\Src\stm32f1xx_hal_tim.c 0x00000000   Number         0  stm32f1xx_hal_tim.o ABSOLUTE
    ..\Drivers\STM32F1xx_HAL_Driver\Src\stm32f1xx_hal_tim_ex.c 0x00000000   Number         0  stm32f1xx_hal_tim_ex.o ABSOLUTE
    ..\Drivers\STM32F1xx_HAL_Driver\Src\stm32f1xx_hal_uart.c 0x00000000   Number         0  stm32f1xx_hal_uart.o ABSOLUTE
    ..\Drivers\timer\time.c                  0x00000000   Number         0  time.o ABSOLUTE
    ..\Src\dma.c                             0x00000000   Number         0  dma.o ABSOLUTE
    ..\Src\gpio.c                            0x00000000   Number         0  gpio.o ABSOLUTE
    ..\Src\main.c                            0x00000000   Number         0  main.o ABSOLUTE
    ..\Src\stm32f1xx_hal_msp.c               0x00000000   Number         0  stm32f1xx_hal_msp.o ABSOLUTE
    ..\Src\stm32f1xx_it.c                    0x00000000   Number         0  stm32f1xx_it.o ABSOLUTE
    ..\Src\system_stm32f1xx.c                0x00000000   Number         0  system_stm32f1xx.o ABSOLUTE
    ..\Src\usart.c                           0x00000000   Number         0  usart.o ABSOLUTE
    ..\\Drivers\\HEXSTR\\HEXSTR.c            0x00000000   Number         0  hexstr.o ABSOLUTE
    ..\\Drivers\\LED\\led.c                  0x00000000   Number         0  led.o ABSOLUTE
    ..\\Drivers\\My_string\\my_string.c      0x00000000   Number         0  my_string.o ABSOLUTE
    ..\\Drivers\\SIM7600_deiver\\SIM7600.c   0x00000000   Number         0  sim7600.o ABSOLUTE
    ..\\Drivers\\timer\\time.c               0x00000000   Number         0  time.o ABSOLUTE
    ..\\m_app\\ymodem.c                      0x00000000   Number         0  ymodem.o ABSOLUTE
    ..\m_app\ymodem.c                        0x00000000   Number         0  ymodem.o ABSOLUTE
    cdrcmple.s                               0x00000000   Number         0  cdrcmple.o ABSOLUTE
    dc.s                                     0x00000000   Number         0  dc.o ABSOLUTE
    handlers.s                               0x00000000   Number         0  handlers.o ABSOLUTE
    init.s                                   0x00000000   Number         0  init.o ABSOLUTE
    startup_stm32f103xe.s                    0x00000000   Number         0  startup_stm32f103xe.o ABSOLUTE
    RESET                                    0x08005000   Section      304  startup_stm32f103xe.o(RESET)
    .ARM.Collect$$$$00000000                 0x08005130   Section        0  entry.o(.ARM.Collect$$$$00000000)
    .ARM.Collect$$$$00000001                 0x08005130   Section        4  entry2.o(.ARM.Collect$$$$00000001)
    .ARM.Collect$$$$00000004                 0x08005134   Section        4  entry5.o(.ARM.Collect$$$$00000004)
    .ARM.Collect$$$$00000008                 0x08005138   Section        0  entry7b.o(.ARM.Collect$$$$00000008)
    .ARM.Collect$$$$0000000A                 0x08005138   Section        0  entry8b.o(.ARM.Collect$$$$0000000A)
    .ARM.Collect$$$$0000000B                 0x08005138   Section        8  entry9a.o(.ARM.Collect$$$$0000000B)
    .ARM.Collect$$$$0000000D                 0x08005140   Section        0  entry10a.o(.ARM.Collect$$$$0000000D)
    .ARM.Collect$$$$0000000F                 0x08005140   Section        0  entry11a.o(.ARM.Collect$$$$0000000F)
    .ARM.Collect$$$$00002712                 0x08005140   Section        4  entry2.o(.ARM.Collect$$$$00002712)
    __lit__00000000                          0x08005140   Data           4  entry2.o(.ARM.Collect$$$$00002712)
    .text                                    0x08005144   Section       36  startup_stm32f103xe.o(.text)
    .text                                    0x08005168   Section        0  llushr.o(.text)
    .text                                    0x08005188   Section        0  memcpya.o(.text)
    .text                                    0x080051ac   Section        0  memseta.o(.text)
    .text                                    0x080051d0   Section        0  strstr.o(.text)
    .text                                    0x080051f4   Section        0  strlen.o(.text)
    .text                                    0x08005202   Section        0  atoi.o(.text)
    .text                                    0x0800521c   Section        0  uldiv.o(.text)
    .text                                    0x0800527e   Section        0  strtol.o(.text)
    .text                                    0x080052f0   Section       36  init.o(.text)
    .text                                    0x08005314   Section        0  llshl.o(.text)
    .text                                    0x08005334   Section        0  ctype_o.o(.text)
    .text                                    0x0800533c   Section        0  _strtoul.o(.text)
    .text                                    0x080053da   Section        0  _chval.o(.text)
    .text                                    0x080053f6   Section        0  __dczerorl2.o(.text)
    i.ATRec                                  0x0800544c   Section        0  sim7600.o(i.ATRec)
    i.ATSend                                 0x080054ac   Section        0  sim7600.o(i.ATSend)
    i.BusFault_Handler                       0x08005690   Section        0  stm32f1xx_it.o(i.BusFault_Handler)
    i.CompareTime                            0x08005692   Section        0  time.o(i.CompareTime)
    i.DMA1_Channel3_IRQHandler               0x080056ac   Section        0  stm32f1xx_it.o(i.DMA1_Channel3_IRQHandler)
    i.DMA1_Channel4_IRQHandler               0x080056b8   Section        0  stm32f1xx_it.o(i.DMA1_Channel4_IRQHandler)
    i.DMA1_Channel5_IRQHandler               0x080056c4   Section        0  stm32f1xx_it.o(i.DMA1_Channel5_IRQHandler)
    i.DMA1_Channel6_IRQHandler               0x080056d0   Section        0  stm32f1xx_it.o(i.DMA1_Channel6_IRQHandler)
    i.DMA1_Channel7_IRQHandler               0x080056dc   Section        0  stm32f1xx_it.o(i.DMA1_Channel7_IRQHandler)
    i.DMA_SetConfig                          0x080056e8   Section        0  stm32f1xx_hal_dma.o(i.DMA_SetConfig)
    DMA_SetConfig                            0x080056e9   Thumb Code    42  stm32f1xx_hal_dma.o(i.DMA_SetConfig)
    i.DebugMon_Handler                       0x08005712   Section        0  stm32f1xx_it.o(i.DebugMon_Handler)
    i.EnableUsart_IT                         0x08005714   Section        0  usart.o(i.EnableUsart_IT)
    i.Erase_page                             0x080057a8   Section        0  ymodem.o(i.Erase_page)
    i.Error_Handler                          0x080057d0   Section        0  main.o(i.Error_Handler)
    i.FLASH_MassErase                        0x080057d4   Section        0  stm32f1xx_hal_flash_ex.o(i.FLASH_MassErase)
    FLASH_MassErase                          0x080057d5   Thumb Code    26  stm32f1xx_hal_flash_ex.o(i.FLASH_MassErase)
    i.FLASH_PageErase                        0x080057f8   Section        0  stm32f1xx_hal_flash_ex.o(i.FLASH_PageErase)
    i.FLASH_Program_HalfWord                 0x0800581c   Section        0  stm32f1xx_hal_flash.o(i.FLASH_Program_HalfWord)
    FLASH_Program_HalfWord                   0x0800581d   Thumb Code    20  stm32f1xx_hal_flash.o(i.FLASH_Program_HalfWord)
    i.FLASH_SetErrorCode                     0x08005838   Section        0  stm32f1xx_hal_flash.o(i.FLASH_SetErrorCode)
    FLASH_SetErrorCode                       0x08005839   Thumb Code    84  stm32f1xx_hal_flash.o(i.FLASH_SetErrorCode)
    i.FLASH_WaitForLastOperation             0x08005894   Section        0  stm32f1xx_hal_flash.o(i.FLASH_WaitForLastOperation)
    i.Find_string                            0x080058e8   Section        0  my_string.o(i.Find_string)
    i.HAL_DMA_Abort                          0x08005948   Section        0  stm32f1xx_hal_dma.o(i.HAL_DMA_Abort)
    i.HAL_DMA_Abort_IT                       0x08005978   Section        0  stm32f1xx_hal_dma.o(i.HAL_DMA_Abort_IT)
    i.HAL_DMA_IRQHandler                     0x08005aa8   Section        0  stm32f1xx_hal_dma.o(i.HAL_DMA_IRQHandler)
    i.HAL_DMA_Init                           0x08005cf0   Section        0  stm32f1xx_hal_dma.o(i.HAL_DMA_Init)
    i.HAL_DMA_Start_IT                       0x08005d6c   Section        0  stm32f1xx_hal_dma.o(i.HAL_DMA_Start_IT)
    i.HAL_Delay                              0x08005ddc   Section        0  stm32f1xx_hal.o(i.HAL_Delay)
    i.HAL_FLASHEx_Erase                      0x08005e00   Section        0  stm32f1xx_hal_flash_ex.o(i.HAL_FLASHEx_Erase)
    i.HAL_FLASH_Lock                         0x08005ea8   Section        0  stm32f1xx_hal_flash.o(i.HAL_FLASH_Lock)
    i.HAL_FLASH_Program                      0x08005ebc   Section        0  stm32f1xx_hal_flash.o(i.HAL_FLASH_Program)
    i.HAL_FLASH_Unlock                       0x08005f3c   Section        0  stm32f1xx_hal_flash.o(i.HAL_FLASH_Unlock)
    i.HAL_GPIO_Init                          0x08005f64   Section        0  stm32f1xx_hal_gpio.o(i.HAL_GPIO_Init)
    i.HAL_GPIO_ReadPin                       0x0800614c   Section        0  stm32f1xx_hal_gpio.o(i.HAL_GPIO_ReadPin)
    i.HAL_GPIO_WritePin                      0x08006156   Section        0  stm32f1xx_hal_gpio.o(i.HAL_GPIO_WritePin)
    i.HAL_GetTick                            0x08006160   Section        0  stm32f1xx_hal.o(i.HAL_GetTick)
    i.HAL_IncTick                            0x0800616c   Section        0  stm32f1xx_hal.o(i.HAL_IncTick)
    i.HAL_Init                               0x0800617c   Section        0  stm32f1xx_hal.o(i.HAL_Init)
    i.HAL_InitTick                           0x080061a0   Section        0  stm32f1xx_hal.o(i.HAL_InitTick)
    i.HAL_MspInit                            0x080061e0   Section        0  stm32f1xx_hal_msp.o(i.HAL_MspInit)
    i.HAL_NVIC_DisableIRQ                    0x0800622c   Section        0  stm32f1xx_hal_cortex.o(i.HAL_NVIC_DisableIRQ)
    i.HAL_NVIC_EnableIRQ                     0x08006242   Section        0  stm32f1xx_hal_cortex.o(i.HAL_NVIC_EnableIRQ)
    i.HAL_NVIC_SetPriority                   0x08006258   Section        0  stm32f1xx_hal_cortex.o(i.HAL_NVIC_SetPriority)
    i.HAL_NVIC_SetPriorityGrouping           0x08006298   Section        0  stm32f1xx_hal_cortex.o(i.HAL_NVIC_SetPriorityGrouping)
    i.HAL_NVIC_SystemReset                   0x080062bc   Section        0  stm32f1xx_hal_cortex.o(i.HAL_NVIC_SystemReset)
    i.HAL_RCC_ClockConfig                    0x080062e0   Section        0  stm32f1xx_hal_rcc.o(i.HAL_RCC_ClockConfig)
    i.HAL_RCC_GetPCLK1Freq                   0x0800644c   Section        0  stm32f1xx_hal_rcc.o(i.HAL_RCC_GetPCLK1Freq)
    i.HAL_RCC_GetPCLK2Freq                   0x0800646c   Section        0  stm32f1xx_hal_rcc.o(i.HAL_RCC_GetPCLK2Freq)
    i.HAL_RCC_GetSysClockFreq                0x0800648c   Section        0  stm32f1xx_hal_rcc.o(i.HAL_RCC_GetSysClockFreq)
    i.HAL_RCC_OscConfig                      0x080064f8   Section        0  stm32f1xx_hal_rcc.o(i.HAL_RCC_OscConfig)
    i.HAL_SYSTICK_Config                     0x080067fc   Section        0  stm32f1xx_hal_cortex.o(i.HAL_SYSTICK_Config)
    i.HAL_UART_DMAStop                       0x08006824   Section        0  stm32f1xx_hal_uart.o(i.HAL_UART_DMAStop)
    i.HAL_UART_ErrorCallback                 0x0800687c   Section        0  stm32f1xx_hal_uart.o(i.HAL_UART_ErrorCallback)
    i.HAL_UART_IRQHandler                    0x08006880   Section        0  stm32f1xx_hal_uart.o(i.HAL_UART_IRQHandler)
    i.HAL_UART_Init                          0x08006990   Section        0  stm32f1xx_hal_uart.o(i.HAL_UART_Init)
    i.HAL_UART_MspInit                       0x080069f4   Section        0  usart.o(i.HAL_UART_MspInit)
    i.HAL_UART_Receive_DMA                   0x08006c28   Section        0  stm32f1xx_hal_uart.o(i.HAL_UART_Receive_DMA)
    i.HAL_UART_RxCpltCallback                0x08006cc0   Section        0  usart.o(i.HAL_UART_RxCpltCallback)
    i.HAL_UART_RxHalfCpltCallback            0x08006de0   Section        0  stm32f1xx_hal_uart.o(i.HAL_UART_RxHalfCpltCallback)
    i.HAL_UART_Transmit                      0x08006de2   Section        0  stm32f1xx_hal_uart.o(i.HAL_UART_Transmit)
    i.HAL_UART_TxCpltCallback                0x08006e9c   Section        0  stm32f1xx_hal_uart.o(i.HAL_UART_TxCpltCallback)
    i.HardFault_Handler                      0x08006e9e   Section        0  stm32f1xx_it.o(i.HardFault_Handler)
    i.LedOff                                 0x08006ea0   Section        0  led.o(i.LedOff)
    i.LedOn                                  0x08006eb8   Section        0  led.o(i.LedOn)
    i.LedTask                                0x08006ed0   Section        0  led.o(i.LedTask)
    i.MX_DMA_Init                            0x08006f20   Section        0  dma.o(i.MX_DMA_Init)
    i.MX_GPIO_Init                           0x08006f8c   Section        0  gpio.o(i.MX_GPIO_Init)
    i.MX_USART1_UART_Init                    0x0800705c   Section        0  usart.o(i.MX_USART1_UART_Init)
    i.MX_USART2_UART_Init                    0x08007094   Section        0  usart.o(i.MX_USART2_UART_Init)
    i.MX_USART3_UART_Init                    0x080070cc   Section        0  usart.o(i.MX_USART3_UART_Init)
    i.MemManage_Handler                      0x08007104   Section        0  stm32f1xx_it.o(i.MemManage_Handler)
    i.NMI_Handler                            0x08007106   Section        0  stm32f1xx_it.o(i.NMI_Handler)
    i.NVIC_SetPriority                       0x08007108   Section        0  stm32f1xx_hal_cortex.o(i.NVIC_SetPriority)
    NVIC_SetPriority                         0x08007109   Thumb Code    32  stm32f1xx_hal_cortex.o(i.NVIC_SetPriority)
    i.NVIC_SystemReset                       0x08007128   Section        0  usart.o(i.NVIC_SystemReset)
    NVIC_SystemReset                         0x08007129   Thumb Code    26  usart.o(i.NVIC_SystemReset)
    i.OTA_Task                               0x0800714c   Section        0  sim7600.o(i.OTA_Task)
    i.PendSV_Handler                         0x0800716c   Section        0  stm32f1xx_it.o(i.PendSV_Handler)
    i.RCC_IRQHandler                         0x0800716e   Section        0  stm32f1xx_it.o(i.RCC_IRQHandler)
    i.Rec_WaitAT                             0x08007170   Section        0  sim7600.o(i.Rec_WaitAT)
    i.SIM7600_Close                          0x080077e4   Section        0  sim7600.o(i.SIM7600_Close)
    i.SIM7600_Init                           0x080078bc   Section        0  sim7600.o(i.SIM7600_Init)
    i.SIM7600_Task                           0x08007980   Section        0  sim7600.o(i.SIM7600_Task)
    i.SIM7600_Wake_up                        0x080079f4   Section        0  sim7600.o(i.SIM7600_Wake_up)
    i.SVC_Handler                            0x08007a38   Section        0  stm32f1xx_it.o(i.SVC_Handler)
    i.SetLedRun                              0x08007a3c   Section        0  led.o(i.SetLedRun)
    i.SetTime                                0x08007a4c   Section        0  time.o(i.SetTime)
    i.Set_Update_Down                        0x08007a5c   Section        0  ymodem.o(i.Set_Update_Down)
    i.SimCom_check                           0x08007a74   Section        0  sim7600.o(i.SimCom_check)
    i.SysTick_Handler                        0x08007b18   Section        0  stm32f1xx_it.o(i.SysTick_Handler)
    i.SystemClock_Config                     0x08007b1c   Section        0  main.o(i.SystemClock_Config)
    i.SystemInit                             0x08007b6c   Section        0  system_stm32f1xx.o(i.SystemInit)
    i.UART_DMAAbortOnError                   0x08007bb4   Section        0  stm32f1xx_hal_uart.o(i.UART_DMAAbortOnError)
    UART_DMAAbortOnError                     0x08007bb5   Thumb Code    16  stm32f1xx_hal_uart.o(i.UART_DMAAbortOnError)
    i.UART_DMAError                          0x08007bc4   Section        0  stm32f1xx_hal_uart.o(i.UART_DMAError)
    UART_DMAError                            0x08007bc5   Thumb Code    74  stm32f1xx_hal_uart.o(i.UART_DMAError)
    i.UART_DMAReceiveCplt                    0x08007c0e   Section        0  stm32f1xx_hal_uart.o(i.UART_DMAReceiveCplt)
    UART_DMAReceiveCplt                      0x08007c0f   Thumb Code    60  stm32f1xx_hal_uart.o(i.UART_DMAReceiveCplt)
    i.UART_DMARxHalfCplt                     0x08007c4a   Section        0  stm32f1xx_hal_uart.o(i.UART_DMARxHalfCplt)
    UART_DMARxHalfCplt                       0x08007c4b   Thumb Code    10  stm32f1xx_hal_uart.o(i.UART_DMARxHalfCplt)
    i.UART_EndRxTransfer                     0x08007c54   Section        0  stm32f1xx_hal_uart.o(i.UART_EndRxTransfer)
    UART_EndRxTransfer                       0x08007c55   Thumb Code    28  stm32f1xx_hal_uart.o(i.UART_EndRxTransfer)
    i.UART_EndTxTransfer                     0x08007c70   Section        0  stm32f1xx_hal_uart.o(i.UART_EndTxTransfer)
    UART_EndTxTransfer                       0x08007c71   Thumb Code    18  stm32f1xx_hal_uart.o(i.UART_EndTxTransfer)
    i.UART_Receive_IT                        0x08007c82   Section        0  stm32f1xx_hal_uart.o(i.UART_Receive_IT)
    UART_Receive_IT                          0x08007c83   Thumb Code   150  stm32f1xx_hal_uart.o(i.UART_Receive_IT)
    i.UART_SetConfig                         0x08007d18   Section        0  stm32f1xx_hal_uart.o(i.UART_SetConfig)
    UART_SetConfig                           0x08007d19   Thumb Code   364  stm32f1xx_hal_uart.o(i.UART_SetConfig)
    i.UART_Transmit_IT                       0x08007e88   Section        0  stm32f1xx_hal_uart.o(i.UART_Transmit_IT)
    UART_Transmit_IT                         0x08007e89   Thumb Code    98  stm32f1xx_hal_uart.o(i.UART_Transmit_IT)
    i.UART_WaitOnFlagUntilTimeout            0x08007eea   Section        0  stm32f1xx_hal_uart.o(i.UART_WaitOnFlagUntilTimeout)
    UART_WaitOnFlagUntilTimeout              0x08007eeb   Thumb Code   100  stm32f1xx_hal_uart.o(i.UART_WaitOnFlagUntilTimeout)
    i.USART1_IRQHandler                      0x08007f50   Section        0  stm32f1xx_it.o(i.USART1_IRQHandler)
    i.USART2_IRQHandler                      0x08007fa8   Section        0  stm32f1xx_it.o(i.USART2_IRQHandler)
    i.USART3_IRQHandler                      0x08008000   Section        0  stm32f1xx_it.o(i.USART3_IRQHandler)
    i.USART_Task                             0x08008058   Section        0  usart.o(i.USART_Task)
    i.UsageFault_Handler                     0x080080ac   Section        0  stm32f1xx_it.o(i.UsageFault_Handler)
    i.WriteFlash                             0x080080b0   Section        0  ymodem.o(i.WriteFlash)
    i.__0printf$5                            0x080080e4   Section        0  printf5.o(i.__0printf$5)
    i.__0sprintf$5                           0x08008104   Section        0  printf5.o(i.__0sprintf$5)
    i.__aeabi_errno_addr                     0x0800812c   Section        0  errno.o(i.__aeabi_errno_addr)
    i.__scatterload_copy                     0x08008134   Section       14  handlers.o(i.__scatterload_copy)
    i.__scatterload_null                     0x08008142   Section        2  handlers.o(i.__scatterload_null)
    i.__scatterload_zeroinit                 0x08008144   Section       14  handlers.o(i.__scatterload_zeroinit)
    i._printf_core                           0x08008154   Section        0  printf5.o(i._printf_core)
    _printf_core                             0x08008155   Thumb Code   658  printf5.o(i._printf_core)
    i._sputc                                 0x08008414   Section        0  printf5.o(i._sputc)
    _sputc                                   0x08008415   Thumb Code    10  printf5.o(i._sputc)
    i.fputc                                  0x08008420   Section        0  usart.o(i.fputc)
    i.main                                   0x08008438   Section        0  main.o(i.main)
    i.scan_CITC                              0x08008528   Section        0  usart.o(i.scan_CITC)
    i.work_LED                               0x080086e0   Section        0  sim7600.o(i.work_LED)
    .constdata                               0x080086fc   Section        6  led.o(.constdata)
    .constdata                               0x08008702   Section       16  system_stm32f1xx.o(.constdata)
    .constdata                               0x08008712   Section        8  system_stm32f1xx.o(.constdata)
    .constdata                               0x0800871a   Section      129  ctype_o.o(.constdata)
    .constdata                               0x0800879c   Section        4  ctype_o.o(.constdata)
    table                                    0x0800879c   Data           4  ctype_o.o(.constdata)
    .conststring                             0x080087a0   Section      620  sim7600.o(.conststring)
    .data                                    0x20000000   Section      400  sim7600.o(.data)
    CurrentRty                               0x20000002   Data           1  sim7600.o(.data)
    ATRecCmdNum                              0x20000003   Data           1  sim7600.o(.data)
    TimeNB                                   0x20000028   Data           8  sim7600.o(.data)
    SIMCOM_Check                             0x20000030   Data           8  sim7600.o(.data)
    Work_Led                                 0x20000038   Data           8  sim7600.o(.data)
    .data                                    0x20000190   Section        5  led.o(.data)
    LedTaskStatus                            0x20000192   Data           3  led.o(.data)
    .data                                    0x20000195   Section        1  usart.o(.data)
    RESET_FLAG                               0x20000195   Data           1  usart.o(.data)
    .data                                    0x20000198   Section       12  stm32f1xx_hal.o(.data)
    .data                                    0x200001a4   Section        4  system_stm32f1xx.o(.data)
    .data                                    0x200001a8   Section        4  stdout.o(.data)
    .data                                    0x200001ac   Section        4  errno.o(.data)
    _errno                                   0x200001ac   Data           4  errno.o(.data)
    .bss                                     0x200001b0   Section     1313  sim7600.o(.bss)
    .bss                                     0x200006d4   Section       24  led.o(.bss)
    TimeLeds                                 0x200006d4   Data          24  led.o(.bss)
    .bss                                     0x200006ec   Section    11820  usart.o(.bss)
    .bss                                     0x20003518   Section       32  stm32f1xx_hal_flash.o(.bss)
    STACK                                    0x20003538   Section     4096  startup_stm32f103xe.o(STACK)

    Global Symbols

    Symbol Name                              Value     Ov Type        Size  Object(Section)

    BuildAttributes$$THM_ISAv4$P$D$K$B$S$PE$A:L22UL41UL21$X:L11$S22US41US21$IEEE1$IW$USESV6$~STKCKD$USESV7$~SHL$OSPACE$ROPI$EBA8$MICROLIB$REQ8$PRES8$EABIv2 0x00000000   Number         0  anon$$obj.o ABSOLUTE
    __ARM_use_no_argv                        0x00000000   Number         0  main.o ABSOLUTE
    _printf_a                                0x00000000   Number         0  stubs.o ABSOLUTE
    _printf_c                                0x00000000   Number         0  stubs.o ABSOLUTE
    _printf_charcount                        0x00000000   Number         0  stubs.o ABSOLUTE
    _printf_d                                0x00000000   Number         0  stubs.o ABSOLUTE
    _printf_e                                0x00000000   Number         0  stubs.o ABSOLUTE
    _printf_f                                0x00000000   Number         0  stubs.o ABSOLUTE
    _printf_flags                            0x00000000   Number         0  stubs.o ABSOLUTE
    _printf_fp_dec                           0x00000000   Number         0  stubs.o ABSOLUTE
    _printf_fp_hex                           0x00000000   Number         0  stubs.o ABSOLUTE
    _printf_g                                0x00000000   Number         0  stubs.o ABSOLUTE
    _printf_i                                0x00000000   Number         0  stubs.o ABSOLUTE
    _printf_int_dec                          0x00000000   Number         0  stubs.o ABSOLUTE
    _printf_l                                0x00000000   Number         0  stubs.o ABSOLUTE
    _printf_lc                               0x00000000   Number         0  stubs.o ABSOLUTE
    _printf_ll                               0x00000000   Number         0  stubs.o ABSOLUTE
    _printf_lld                              0x00000000   Number         0  stubs.o ABSOLUTE
    _printf_lli                              0x00000000   Number         0  stubs.o ABSOLUTE
    _printf_llo                              0x00000000   Number         0  stubs.o ABSOLUTE
    _printf_llu                              0x00000000   Number         0  stubs.o ABSOLUTE
    _printf_llx                              0x00000000   Number         0  stubs.o ABSOLUTE
    _printf_longlong_dec                     0x00000000   Number         0  stubs.o ABSOLUTE
    _printf_longlong_hex                     0x00000000   Number         0  stubs.o ABSOLUTE
    _printf_longlong_oct                     0x00000000   Number         0  stubs.o ABSOLUTE
    _printf_ls                               0x00000000   Number         0  stubs.o ABSOLUTE
    _printf_mbtowc                           0x00000000   Number         0  stubs.o ABSOLUTE
    _printf_n                                0x00000000   Number         0  stubs.o ABSOLUTE
    _printf_o                                0x00000000   Number         0  stubs.o ABSOLUTE
    _printf_p                                0x00000000   Number         0  stubs.o ABSOLUTE
    _printf_percent                          0x00000000   Number         0  stubs.o ABSOLUTE
    _printf_pre_padding                      0x00000000   Number         0  stubs.o ABSOLUTE
    _printf_return_value                     0x00000000   Number         0  stubs.o ABSOLUTE
    _printf_s                                0x00000000   Number         0  stubs.o ABSOLUTE
    _printf_sizespec                         0x00000000   Number         0  stubs.o ABSOLUTE
    _printf_str                              0x00000000   Number         0  stubs.o ABSOLUTE
    _printf_truncate_signed                  0x00000000   Number         0  stubs.o ABSOLUTE
    _printf_truncate_unsigned                0x00000000   Number         0  stubs.o ABSOLUTE
    _printf_u                                0x00000000   Number         0  stubs.o ABSOLUTE
    _printf_wc                               0x00000000   Number         0  stubs.o ABSOLUTE
    _printf_wctomb                           0x00000000   Number         0  stubs.o ABSOLUTE
    _printf_widthprec                        0x00000000   Number         0  stubs.o ABSOLUTE
    _printf_x                                0x00000000   Number         0  stubs.o ABSOLUTE
    __cpp_initialize__aeabi_                  - Undefined Weak Reference
    __cxa_finalize                            - Undefined Weak Reference
    _clock_init                               - Undefined Weak Reference
    _microlib_exit                            - Undefined Weak Reference
    __Vectors_Size                           0x00000130   Number         0  startup_stm32f103xe.o ABSOLUTE
    __Vectors                                0x08005000   Data           4  startup_stm32f103xe.o(RESET)
    __Vectors_End                            0x08005130   Data           0  startup_stm32f103xe.o(RESET)
    __main                                   0x08005131   Thumb Code     0  entry.o(.ARM.Collect$$$$00000000)
    _main_stk                                0x08005131   Thumb Code     0  entry2.o(.ARM.Collect$$$$00000001)
    _main_scatterload                        0x08005135   Thumb Code     0  entry5.o(.ARM.Collect$$$$00000004)
    __main_after_scatterload                 0x08005139   Thumb Code     0  entry5.o(.ARM.Collect$$$$00000004)
    _main_clock                              0x08005139   Thumb Code     0  entry7b.o(.ARM.Collect$$$$00000008)
    _main_cpp_init                           0x08005139   Thumb Code     0  entry8b.o(.ARM.Collect$$$$0000000A)
    _main_init                               0x08005139   Thumb Code     0  entry9a.o(.ARM.Collect$$$$0000000B)
    __rt_final_cpp                           0x08005141   Thumb Code     0  entry10a.o(.ARM.Collect$$$$0000000D)
    __rt_final_exit                          0x08005141   Thumb Code     0  entry11a.o(.ARM.Collect$$$$0000000F)
    Reset_Handler                            0x08005145   Thumb Code     8  startup_stm32f103xe.o(.text)
    ADC1_2_IRQHandler                        0x0800515f   Thumb Code     0  startup_stm32f103xe.o(.text)
    ADC3_IRQHandler                          0x0800515f   Thumb Code     0  startup_stm32f103xe.o(.text)
    CAN1_RX1_IRQHandler                      0x0800515f   Thumb Code     0  startup_stm32f103xe.o(.text)
    CAN1_SCE_IRQHandler                      0x0800515f   Thumb Code     0  startup_stm32f103xe.o(.text)
    DMA1_Channel1_IRQHandler                 0x0800515f   Thumb Code     0  startup_stm32f103xe.o(.text)
    DMA1_Channel2_IRQHandler                 0x0800515f   Thumb Code     0  startup_stm32f103xe.o(.text)
    DMA2_Channel1_IRQHandler                 0x0800515f   Thumb Code     0  startup_stm32f103xe.o(.text)
    DMA2_Channel2_IRQHandler                 0x0800515f   Thumb Code     0  startup_stm32f103xe.o(.text)
    DMA2_Channel3_IRQHandler                 0x0800515f   Thumb Code     0  startup_stm32f103xe.o(.text)
    DMA2_Channel4_5_IRQHandler               0x0800515f   Thumb Code     0  startup_stm32f103xe.o(.text)
    EXTI0_IRQHandler                         0x0800515f   Thumb Code     0  startup_stm32f103xe.o(.text)
    EXTI15_10_IRQHandler                     0x0800515f   Thumb Code     0  startup_stm32f103xe.o(.text)
    EXTI1_IRQHandler                         0x0800515f   Thumb Code     0  startup_stm32f103xe.o(.text)
    EXTI2_IRQHandler                         0x0800515f   Thumb Code     0  startup_stm32f103xe.o(.text)
    EXTI3_IRQHandler                         0x0800515f   Thumb Code     0  startup_stm32f103xe.o(.text)
    EXTI4_IRQHandler                         0x0800515f   Thumb Code     0  startup_stm32f103xe.o(.text)
    EXTI9_5_IRQHandler                       0x0800515f   Thumb Code     0  startup_stm32f103xe.o(.text)
    FLASH_IRQHandler                         0x0800515f   Thumb Code     0  startup_stm32f103xe.o(.text)
    FSMC_IRQHandler                          0x0800515f   Thumb Code     0  startup_stm32f103xe.o(.text)
    I2C1_ER_IRQHandler                       0x0800515f   Thumb Code     0  startup_stm32f103xe.o(.text)
    I2C1_EV_IRQHandler                       0x0800515f   Thumb Code     0  startup_stm32f103xe.o(.text)
    I2C2_ER_IRQHandler                       0x0800515f   Thumb Code     0  startup_stm32f103xe.o(.text)
    I2C2_EV_IRQHandler                       0x0800515f   Thumb Code     0  startup_stm32f103xe.o(.text)
    PVD_IRQHandler                           0x0800515f   Thumb Code     0  startup_stm32f103xe.o(.text)
    RTC_Alarm_IRQHandler                     0x0800515f   Thumb Code     0  startup_stm32f103xe.o(.text)
    RTC_IRQHandler                           0x0800515f   Thumb Code     0  startup_stm32f103xe.o(.text)
    SDIO_IRQHandler                          0x0800515f   Thumb Code     0  startup_stm32f103xe.o(.text)
    SPI1_IRQHandler                          0x0800515f   Thumb Code     0  startup_stm32f103xe.o(.text)
    SPI2_IRQHandler                          0x0800515f   Thumb Code     0  startup_stm32f103xe.o(.text)
    SPI3_IRQHandler                          0x0800515f   Thumb Code     0  startup_stm32f103xe.o(.text)
    TAMPER_IRQHandler                        0x0800515f   Thumb Code     0  startup_stm32f103xe.o(.text)
    TIM1_BRK_IRQHandler                      0x0800515f   Thumb Code     0  startup_stm32f103xe.o(.text)
    TIM1_CC_IRQHandler                       0x0800515f   Thumb Code     0  startup_stm32f103xe.o(.text)
    TIM1_TRG_COM_IRQHandler                  0x0800515f   Thumb Code     0  startup_stm32f103xe.o(.text)
    TIM1_UP_IRQHandler                       0x0800515f   Thumb Code     0  startup_stm32f103xe.o(.text)
    TIM2_IRQHandler                          0x0800515f   Thumb Code     0  startup_stm32f103xe.o(.text)
    TIM3_IRQHandler                          0x0800515f   Thumb Code     0  startup_stm32f103xe.o(.text)
    TIM4_IRQHandler                          0x0800515f   Thumb Code     0  startup_stm32f103xe.o(.text)
    TIM5_IRQHandler                          0x0800515f   Thumb Code     0  startup_stm32f103xe.o(.text)
    TIM6_IRQHandler                          0x0800515f   Thumb Code     0  startup_stm32f103xe.o(.text)
    TIM7_IRQHandler                          0x0800515f   Thumb Code     0  startup_stm32f103xe.o(.text)
    TIM8_BRK_IRQHandler                      0x0800515f   Thumb Code     0  startup_stm32f103xe.o(.text)
    TIM8_CC_IRQHandler                       0x0800515f   Thumb Code     0  startup_stm32f103xe.o(.text)
    TIM8_TRG_COM_IRQHandler                  0x0800515f   Thumb Code     0  startup_stm32f103xe.o(.text)
    TIM8_UP_IRQHandler                       0x0800515f   Thumb Code     0  startup_stm32f103xe.o(.text)
    UART4_IRQHandler                         0x0800515f   Thumb Code     0  startup_stm32f103xe.o(.text)
    UART5_IRQHandler                         0x0800515f   Thumb Code     0  startup_stm32f103xe.o(.text)
    USBWakeUp_IRQHandler                     0x0800515f   Thumb Code     0  startup_stm32f103xe.o(.text)
    USB_HP_CAN1_TX_IRQHandler                0x0800515f   Thumb Code     0  startup_stm32f103xe.o(.text)
    USB_LP_CAN1_RX0_IRQHandler               0x0800515f   Thumb Code     0  startup_stm32f103xe.o(.text)
    WWDG_IRQHandler                          0x0800515f   Thumb Code     0  startup_stm32f103xe.o(.text)
    __aeabi_llsr                             0x08005169   Thumb Code    32  llushr.o(.text)
    _ll_ushift_r                             0x08005169   Thumb Code     0  llushr.o(.text)
    __aeabi_memcpy                           0x08005189   Thumb Code    36  memcpya.o(.text)
    __aeabi_memcpy4                          0x08005189   Thumb Code     0  memcpya.o(.text)
    __aeabi_memcpy8                          0x08005189   Thumb Code     0  memcpya.o(.text)
    __aeabi_memset                           0x080051ad   Thumb Code    14  memseta.o(.text)
    __aeabi_memset4                          0x080051ad   Thumb Code     0  memseta.o(.text)
    __aeabi_memset8                          0x080051ad   Thumb Code     0  memseta.o(.text)
    __aeabi_memclr                           0x080051bb   Thumb Code     4  memseta.o(.text)
    __aeabi_memclr4                          0x080051bb   Thumb Code     0  memseta.o(.text)
    __aeabi_memclr8                          0x080051bb   Thumb Code     0  memseta.o(.text)
    _memset$wrapper                          0x080051bf   Thumb Code    18  memseta.o(.text)
    strstr                                   0x080051d1   Thumb Code    36  strstr.o(.text)
    strlen                                   0x080051f5   Thumb Code    14  strlen.o(.text)
    atoi                                     0x08005203   Thumb Code    26  atoi.o(.text)
    __aeabi_uldivmod                         0x0800521d   Thumb Code    98  uldiv.o(.text)
    strtol                                   0x0800527f   Thumb Code   112  strtol.o(.text)
    __scatterload                            0x080052f1   Thumb Code    28  init.o(.text)
    __scatterload_rt2                        0x080052f1   Thumb Code     0  init.o(.text)
    __aeabi_llsl                             0x08005315   Thumb Code    30  llshl.o(.text)
    _ll_shift_l                              0x08005315   Thumb Code     0  llshl.o(.text)
    __rt_ctype_table                         0x08005335   Thumb Code     4  ctype_o.o(.text)
    _strtoul                                 0x0800533d   Thumb Code   158  _strtoul.o(.text)
    _chval                                   0x080053db   Thumb Code    28  _chval.o(.text)
    __decompress                             0x080053f7   Thumb Code     0  __dczerorl2.o(.text)
    __decompress1                            0x080053f7   Thumb Code    86  __dczerorl2.o(.text)
    ATRec                                    0x0800544d   Thumb Code    72  sim7600.o(i.ATRec)
    ATSend                                   0x080054ad   Thumb Code   338  sim7600.o(i.ATSend)
    BusFault_Handler                         0x08005691   Thumb Code     2  stm32f1xx_it.o(i.BusFault_Handler)
    CompareTime                              0x08005693   Thumb Code    26  time.o(i.CompareTime)
    DMA1_Channel3_IRQHandler                 0x080056ad   Thumb Code     6  stm32f1xx_it.o(i.DMA1_Channel3_IRQHandler)
    DMA1_Channel4_IRQHandler                 0x080056b9   Thumb Code     6  stm32f1xx_it.o(i.DMA1_Channel4_IRQHandler)
    DMA1_Channel5_IRQHandler                 0x080056c5   Thumb Code     6  stm32f1xx_it.o(i.DMA1_Channel5_IRQHandler)
    DMA1_Channel6_IRQHandler                 0x080056d1   Thumb Code     6  stm32f1xx_it.o(i.DMA1_Channel6_IRQHandler)
    DMA1_Channel7_IRQHandler                 0x080056dd   Thumb Code     6  stm32f1xx_it.o(i.DMA1_Channel7_IRQHandler)
    DebugMon_Handler                         0x08005713   Thumb Code     2  stm32f1xx_it.o(i.DebugMon_Handler)
    EnableUsart_IT                           0x08005715   Thumb Code   132  usart.o(i.EnableUsart_IT)
    Erase_page                               0x080057a9   Thumb Code    40  ymodem.o(i.Erase_page)
    Error_Handler                            0x080057d1   Thumb Code     2  main.o(i.Error_Handler)
    FLASH_PageErase                          0x080057f9   Thumb Code    28  stm32f1xx_hal_flash_ex.o(i.FLASH_PageErase)
    FLASH_WaitForLastOperation               0x08005895   Thumb Code    80  stm32f1xx_hal_flash.o(i.FLASH_WaitForLastOperation)
    Find_string                              0x080058e9   Thumb Code    72  my_string.o(i.Find_string)
    HAL_DMA_Abort                            0x08005949   Thumb Code    48  stm32f1xx_hal_dma.o(i.HAL_DMA_Abort)
    HAL_DMA_Abort_IT                         0x08005979   Thumb Code   296  stm32f1xx_hal_dma.o(i.HAL_DMA_Abort_IT)
    HAL_DMA_IRQHandler                       0x08005aa9   Thumb Code   552  stm32f1xx_hal_dma.o(i.HAL_DMA_IRQHandler)
    HAL_DMA_Init                             0x08005cf1   Thumb Code   112  stm32f1xx_hal_dma.o(i.HAL_DMA_Init)
    HAL_DMA_Start_IT                         0x08005d6d   Thumb Code   112  stm32f1xx_hal_dma.o(i.HAL_DMA_Start_IT)
    HAL_Delay                                0x08005ddd   Thumb Code    32  stm32f1xx_hal.o(i.HAL_Delay)
    HAL_FLASHEx_Erase                        0x08005e01   Thumb Code   160  stm32f1xx_hal_flash_ex.o(i.HAL_FLASHEx_Erase)
    HAL_FLASH_Lock                           0x08005ea9   Thumb Code    14  stm32f1xx_hal_flash.o(i.HAL_FLASH_Lock)
    HAL_FLASH_Program                        0x08005ebd   Thumb Code   120  stm32f1xx_hal_flash.o(i.HAL_FLASH_Program)
    HAL_FLASH_Unlock                         0x08005f3d   Thumb Code    28  stm32f1xx_hal_flash.o(i.HAL_FLASH_Unlock)
    HAL_GPIO_Init                            0x08005f65   Thumb Code   446  stm32f1xx_hal_gpio.o(i.HAL_GPIO_Init)
    HAL_GPIO_ReadPin                         0x0800614d   Thumb Code    10  stm32f1xx_hal_gpio.o(i.HAL_GPIO_ReadPin)
    HAL_GPIO_WritePin                        0x08006157   Thumb Code    10  stm32f1xx_hal_gpio.o(i.HAL_GPIO_WritePin)
    HAL_GetTick                              0x08006161   Thumb Code     6  stm32f1xx_hal.o(i.HAL_GetTick)
    HAL_IncTick                              0x0800616d   Thumb Code    12  stm32f1xx_hal.o(i.HAL_IncTick)
    HAL_Init                                 0x0800617d   Thumb Code    32  stm32f1xx_hal.o(i.HAL_Init)
    HAL_InitTick                             0x080061a1   Thumb Code    54  stm32f1xx_hal.o(i.HAL_InitTick)
    HAL_MspInit                              0x080061e1   Thumb Code    68  stm32f1xx_hal_msp.o(i.HAL_MspInit)
    HAL_NVIC_DisableIRQ                      0x0800622d   Thumb Code    22  stm32f1xx_hal_cortex.o(i.HAL_NVIC_DisableIRQ)
    HAL_NVIC_EnableIRQ                       0x08006243   Thumb Code    22  stm32f1xx_hal_cortex.o(i.HAL_NVIC_EnableIRQ)
    HAL_NVIC_SetPriority                     0x08006259   Thumb Code    60  stm32f1xx_hal_cortex.o(i.HAL_NVIC_SetPriority)
    HAL_NVIC_SetPriorityGrouping             0x08006299   Thumb Code    26  stm32f1xx_hal_cortex.o(i.HAL_NVIC_SetPriorityGrouping)
    HAL_NVIC_SystemReset                     0x080062bd   Thumb Code    26  stm32f1xx_hal_cortex.o(i.HAL_NVIC_SystemReset)
    HAL_RCC_ClockConfig                      0x080062e1   Thumb Code   346  stm32f1xx_hal_rcc.o(i.HAL_RCC_ClockConfig)
    HAL_RCC_GetPCLK1Freq                     0x0800644d   Thumb Code    20  stm32f1xx_hal_rcc.o(i.HAL_RCC_GetPCLK1Freq)
    HAL_RCC_GetPCLK2Freq                     0x0800646d   Thumb Code    20  stm32f1xx_hal_rcc.o(i.HAL_RCC_GetPCLK2Freq)
    HAL_RCC_GetSysClockFreq                  0x0800648d   Thumb Code    74  stm32f1xx_hal_rcc.o(i.HAL_RCC_GetSysClockFreq)
    HAL_RCC_OscConfig                        0x080064f9   Thumb Code   750  stm32f1xx_hal_rcc.o(i.HAL_RCC_OscConfig)
    HAL_SYSTICK_Config                       0x080067fd   Thumb Code    40  stm32f1xx_hal_cortex.o(i.HAL_SYSTICK_Config)
    HAL_UART_DMAStop                         0x08006825   Thumb Code    88  stm32f1xx_hal_uart.o(i.HAL_UART_DMAStop)
    HAL_UART_ErrorCallback                   0x0800687d   Thumb Code     2  stm32f1xx_hal_uart.o(i.HAL_UART_ErrorCallback)
    HAL_UART_IRQHandler                      0x08006881   Thumb Code   266  stm32f1xx_hal_uart.o(i.HAL_UART_IRQHandler)
    HAL_UART_Init                            0x08006991   Thumb Code    98  stm32f1xx_hal_uart.o(i.HAL_UART_Init)
    HAL_UART_MspInit                         0x080069f5   Thumb Code   528  usart.o(i.HAL_UART_MspInit)
    HAL_UART_Receive_DMA                     0x08006c29   Thumb Code   138  stm32f1xx_hal_uart.o(i.HAL_UART_Receive_DMA)
    HAL_UART_RxCpltCallback                  0x08006cc1   Thumb Code   210  usart.o(i.HAL_UART_RxCpltCallback)
    HAL_UART_RxHalfCpltCallback              0x08006de1   Thumb Code     2  stm32f1xx_hal_uart.o(i.HAL_UART_RxHalfCpltCallback)
    HAL_UART_Transmit                        0x08006de3   Thumb Code   186  stm32f1xx_hal_uart.o(i.HAL_UART_Transmit)
    HAL_UART_TxCpltCallback                  0x08006e9d   Thumb Code     2  stm32f1xx_hal_uart.o(i.HAL_UART_TxCpltCallback)
    HardFault_Handler                        0x08006e9f   Thumb Code     2  stm32f1xx_it.o(i.HardFault_Handler)
    LedOff                                   0x08006ea1   Thumb Code    14  led.o(i.LedOff)
    LedOn                                    0x08006eb9   Thumb Code    14  led.o(i.LedOn)
    LedTask                                  0x08006ed1   Thumb Code    72  led.o(i.LedTask)
    MX_DMA_Init                              0x08006f21   Thumb Code   104  dma.o(i.MX_DMA_Init)
    MX_GPIO_Init                             0x08006f8d   Thumb Code   196  gpio.o(i.MX_GPIO_Init)
    MX_USART1_UART_Init                      0x0800705d   Thumb Code    48  usart.o(i.MX_USART1_UART_Init)
    MX_USART2_UART_Init                      0x08007095   Thumb Code    48  usart.o(i.MX_USART2_UART_Init)
    MX_USART3_UART_Init                      0x080070cd   Thumb Code    48  usart.o(i.MX_USART3_UART_Init)
    MemManage_Handler                        0x08007105   Thumb Code     2  stm32f1xx_it.o(i.MemManage_Handler)
    NMI_Handler                              0x08007107   Thumb Code     2  stm32f1xx_it.o(i.NMI_Handler)
    OTA_Task                                 0x0800714d   Thumb Code    26  sim7600.o(i.OTA_Task)
    PendSV_Handler                           0x0800716d   Thumb Code     2  stm32f1xx_it.o(i.PendSV_Handler)
    RCC_IRQHandler                           0x0800716f   Thumb Code     2  stm32f1xx_it.o(i.RCC_IRQHandler)
    Rec_WaitAT                               0x08007171   Thumb Code  1652  sim7600.o(i.Rec_WaitAT)
    SIM7600_Close                            0x080077e5   Thumb Code   162  sim7600.o(i.SIM7600_Close)
    SIM7600_Init                             0x080078bd   Thumb Code   144  sim7600.o(i.SIM7600_Init)
    SIM7600_Task                             0x08007981   Thumb Code   104  sim7600.o(i.SIM7600_Task)
    SIM7600_Wake_up                          0x080079f5   Thumb Code    64  sim7600.o(i.SIM7600_Wake_up)
    SVC_Handler                              0x08007a39   Thumb Code     2  stm32f1xx_it.o(i.SVC_Handler)
    SetLedRun                                0x08007a3d   Thumb Code    12  led.o(i.SetLedRun)
    SetTime                                  0x08007a4d   Thumb Code    16  time.o(i.SetTime)
    Set_Update_Down                          0x08007a5d   Thumb Code    20  ymodem.o(i.Set_Update_Down)
    SimCom_check                             0x08007a75   Thumb Code    90  sim7600.o(i.SimCom_check)
    SysTick_Handler                          0x08007b19   Thumb Code     4  stm32f1xx_it.o(i.SysTick_Handler)
    SystemClock_Config                       0x08007b1d   Thumb Code    78  main.o(i.SystemClock_Config)
    SystemInit                               0x08007b6d   Thumb Code    56  system_stm32f1xx.o(i.SystemInit)
    USART1_IRQHandler                        0x08007f51   Thumb Code    76  stm32f1xx_it.o(i.USART1_IRQHandler)
    USART2_IRQHandler                        0x08007fa9   Thumb Code    76  stm32f1xx_it.o(i.USART2_IRQHandler)
    USART3_IRQHandler                        0x08008001   Thumb Code    76  stm32f1xx_it.o(i.USART3_IRQHandler)
    USART_Task                               0x08008059   Thumb Code    62  usart.o(i.USART_Task)
    UsageFault_Handler                       0x080080ad   Thumb Code     2  stm32f1xx_it.o(i.UsageFault_Handler)
    WriteFlash                               0x080080b1   Thumb Code    50  ymodem.o(i.WriteFlash)
    __0printf$5                              0x080080e5   Thumb Code    22  printf5.o(i.__0printf$5)
    __1printf$5                              0x080080e5   Thumb Code     0  printf5.o(i.__0printf$5)
    __2printf                                0x080080e5   Thumb Code     0  printf5.o(i.__0printf$5)
    __0sprintf$5                             0x08008105   Thumb Code    34  printf5.o(i.__0sprintf$5)
    __1sprintf$5                             0x08008105   Thumb Code     0  printf5.o(i.__0sprintf$5)
    __2sprintf                               0x08008105   Thumb Code     0  printf5.o(i.__0sprintf$5)
    __aeabi_errno_addr                       0x0800812d   Thumb Code     4  errno.o(i.__aeabi_errno_addr)
    __rt_errno_addr                          0x0800812d   Thumb Code     0  errno.o(i.__aeabi_errno_addr)
    __scatterload_copy                       0x08008135   Thumb Code    14  handlers.o(i.__scatterload_copy)
    __scatterload_null                       0x08008143   Thumb Code     2  handlers.o(i.__scatterload_null)
    __scatterload_zeroinit                   0x08008145   Thumb Code    14  handlers.o(i.__scatterload_zeroinit)
    fputc                                    0x08008421   Thumb Code    20  usart.o(i.fputc)
    main                                     0x08008439   Thumb Code   106  main.o(i.main)
    scan_CITC                                0x08008529   Thumb Code   242  usart.o(i.scan_CITC)
    work_LED                                 0x080086e1   Thumb Code    24  sim7600.o(i.work_LED)
    LedPins                                  0x080086fc   Data           6  led.o(.constdata)
    AHBPrescTable                            0x08008702   Data          16  system_stm32f1xx.o(.constdata)
    APBPrescTable                            0x08008712   Data           8  system_stm32f1xx.o(.constdata)
    __ctype_table                            0x0800871a   Data         129  ctype_o.o(.constdata)
    Region$$Table$$Base                      0x08008a0c   Number         0  anon$$obj.o(Region$$Table)
    Region$$Table$$Limit                     0x08008a2c   Number         0  anon$$obj.o(Region$$Table)
    updata_flag                              0x20000000   Data           1  sim7600.o(.data)
    chack_success_flag                       0x20000001   Data           1  sim7600.o(.data)
    NB_TaskStatus                            0x20000004   Data           1  sim7600.o(.data)
    ATNextCmdNum                             0x20000005   Data           1  sim7600.o(.data)
    ATCurrentCmdNum                          0x20000006   Data           1  sim7600.o(.data)
    CITC_token                               0x20000008   Data           4  sim7600.o(.data)
    CITC_IP                                  0x2000000c   Data           4  sim7600.o(.data)
    CITC_PORT                                0x20000010   Data           4  sim7600.o(.data)
    CITC_PUB_TOPIC                           0x20000014   Data           4  sim7600.o(.data)
    CITC_SUB_TOPIC                           0x20000018   Data           4  sim7600.o(.data)
    addres_flag                              0x2000001c   Data           4  sim7600.o(.data)
    clean_falg                               0x20000020   Data           4  sim7600.o(.data)
    OTA_flag                                 0x20000024   Data           4  sim7600.o(.data)
    ATCmds                                   0x20000040   Data         336  sim7600.o(.data)
    led_time                                 0x20000190   Data           2  led.o(.data)
    uwTickFreq                               0x20000198   Data           1  stm32f1xx_hal.o(.data)
    uwTickPrio                               0x2000019c   Data           4  stm32f1xx_hal.o(.data)
    uwTick                                   0x200001a0   Data           4  stm32f1xx_hal.o(.data)
    SystemCoreClock                          0x200001a4   Data           4  system_stm32f1xx.o(.data)
    __stdout                                 0x200001a8   Data           4  stdout.o(.data)
    BIN_buf                                  0x200001b0   Data        1026  sim7600.o(.bss)
    Now_IMEI                                 0x200005b2   Data          20  sim7600.o(.bss)
    Find_Buf                                 0x200005c6   Data         200  sim7600.o(.bss)
    Find_IMEI                                0x2000068e   Data          20  sim7600.o(.bss)
    Find_token                               0x200006a2   Data          17  sim7600.o(.bss)
    CITC_PUB_TOPIC_2                         0x200006b3   Data          30  sim7600.o(.bss)
    Usart1type                               0x200006ec   Data        4506  usart.o(.bss)
    Usart2type                               0x20001886   Data        6006  usart.o(.bss)
    Usart3type                               0x20002ffc   Data         774  usart.o(.bss)
    huart1                                   0x20003304   Data          64  usart.o(.bss)
    huart2                                   0x20003344   Data          64  usart.o(.bss)
    huart3                                   0x20003384   Data          64  usart.o(.bss)
    hdma_usart1_rx                           0x200033c4   Data          68  usart.o(.bss)
    hdma_usart1_tx                           0x20003408   Data          68  usart.o(.bss)
    hdma_usart2_rx                           0x2000344c   Data          68  usart.o(.bss)
    hdma_usart2_tx                           0x20003490   Data          68  usart.o(.bss)
    hdma_usart3_rx                           0x200034d4   Data          68  usart.o(.bss)
    pFlash                                   0x20003518   Data          32  stm32f1xx_hal_flash.o(.bss)
    __initial_sp                             0x20004538   Data           0  startup_stm32f103xe.o(STACK)



==============================================================================

Memory Map of the image

  Image Entry point : 0x08005131

  Load Region LR_IROM1 (Base: 0x08005000, Size: 0x00003bdc, Max: 0x0000a000, ABSOLUTE, COMPRESSED[0x00003ae8])

    Execution Region ER_IROM1 (Exec base: 0x08005000, Load base: 0x08005000, Size: 0x00003a2c, Max: 0x0000a000, ABSOLUTE)

    Exec Addr    Load Addr    Size         Type   Attr      Idx    E Section Name        Object

    0x08005000   0x08005000   0x00000130   Data   RO            3    RESET               startup_stm32f103xe.o
    0x08005130   0x08005130   0x00000000   Code   RO         2125  * .ARM.Collect$$$$00000000  mc_w.l(entry.o)
    0x08005130   0x08005130   0x00000004   Code   RO         2413    .ARM.Collect$$$$00000001  mc_w.l(entry2.o)
    0x08005134   0x08005134   0x00000004   Code   RO         2416    .ARM.Collect$$$$00000004  mc_w.l(entry5.o)
    0x08005138   0x08005138   0x00000000   Code   RO         2418    .ARM.Collect$$$$00000008  mc_w.l(entry7b.o)
    0x08005138   0x08005138   0x00000000   Code   RO         2420    .ARM.Collect$$$$0000000A  mc_w.l(entry8b.o)
    0x08005138   0x08005138   0x00000008   Code   RO         2421    .ARM.Collect$$$$0000000B  mc_w.l(entry9a.o)
    0x08005140   0x08005140   0x00000000   Code   RO         2423    .ARM.Collect$$$$0000000D  mc_w.l(entry10a.o)
    0x08005140   0x08005140   0x00000000   Code   RO         2425    .ARM.Collect$$$$0000000F  mc_w.l(entry11a.o)
    0x08005140   0x08005140   0x00000004   Code   RO         2414    .ARM.Collect$$$$00002712  mc_w.l(entry2.o)
    0x08005144   0x08005144   0x00000024   Code   RO            4    .text               startup_stm32f103xe.o
    0x08005168   0x08005168   0x00000020   Code   RO         2128    .text               mc_w.l(llushr.o)
    0x08005188   0x08005188   0x00000024   Code   RO         2130    .text               mc_w.l(memcpya.o)
    0x080051ac   0x080051ac   0x00000024   Code   RO         2132    .text               mc_w.l(memseta.o)
    0x080051d0   0x080051d0   0x00000024   Code   RO         2134    .text               mc_w.l(strstr.o)
    0x080051f4   0x080051f4   0x0000000e   Code   RO         2136    .text               mc_w.l(strlen.o)
    0x08005202   0x08005202   0x0000001a   Code   RO         2411    .text               mc_w.l(atoi.o)
    0x0800521c   0x0800521c   0x00000062   Code   RO         2430    .text               mc_w.l(uldiv.o)
    0x0800527e   0x0800527e   0x00000070   Code   RO         2439    .text               mc_w.l(strtol.o)
    0x080052ee   0x080052ee   0x00000002   PAD
    0x080052f0   0x080052f0   0x00000024   Code   RO         2452    .text               mc_w.l(init.o)
    0x08005314   0x08005314   0x0000001e   Code   RO         2454    .text               mc_w.l(llshl.o)
    0x08005332   0x08005332   0x00000002   PAD
    0x08005334   0x08005334   0x00000008   Code   RO         2458    .text               mc_w.l(ctype_o.o)
    0x0800533c   0x0800533c   0x0000009e   Code   RO         2486    .text               mc_w.l(_strtoul.o)
    0x080053da   0x080053da   0x0000001c   Code   RO         2490    .text               mc_w.l(_chval.o)
    0x080053f6   0x080053f6   0x00000056   Code   RO         2500    .text               mc_w.l(__dczerorl2.o)
    0x0800544c   0x0800544c   0x00000060   Code   RO           13    i.ATRec             sim7600.o
    0x080054ac   0x080054ac   0x000001e4   Code   RO           14    i.ATSend            sim7600.o
    0x08005690   0x08005690   0x00000002   Code   RO          575    i.BusFault_Handler  stm32f1xx_it.o
    0x08005692   0x08005692   0x0000001a   Code   RO          304    i.CompareTime       time.o
    0x080056ac   0x080056ac   0x0000000c   Code   RO          576    i.DMA1_Channel3_IRQHandler  stm32f1xx_it.o
    0x080056b8   0x080056b8   0x0000000c   Code   RO          577    i.DMA1_Channel4_IRQHandler  stm32f1xx_it.o
    0x080056c4   0x080056c4   0x0000000c   Code   RO          578    i.DMA1_Channel5_IRQHandler  stm32f1xx_it.o
    0x080056d0   0x080056d0   0x0000000c   Code   RO          579    i.DMA1_Channel6_IRQHandler  stm32f1xx_it.o
    0x080056dc   0x080056dc   0x0000000c   Code   RO          580    i.DMA1_Channel7_IRQHandler  stm32f1xx_it.o
    0x080056e8   0x080056e8   0x0000002a   Code   RO         1565    i.DMA_SetConfig     stm32f1xx_hal_dma.o
    0x08005712   0x08005712   0x00000002   Code   RO          581    i.DebugMon_Handler  stm32f1xx_it.o
    0x08005714   0x08005714   0x00000094   Code   RO          476    i.EnableUsart_IT    usart.o
    0x080057a8   0x080057a8   0x00000028   Code   RO          730    i.Erase_page        ymodem.o
    0x080057d0   0x080057d0   0x00000002   Code   RO          389    i.Error_Handler     main.o
    0x080057d2   0x080057d2   0x00000002   PAD
    0x080057d4   0x080057d4   0x00000024   Code   RO         2005    i.FLASH_MassErase   stm32f1xx_hal_flash_ex.o
    0x080057f8   0x080057f8   0x00000024   Code   RO         2010    i.FLASH_PageErase   stm32f1xx_hal_flash_ex.o
    0x0800581c   0x0800581c   0x0000001c   Code   RO         1902    i.FLASH_Program_HalfWord  stm32f1xx_hal_flash.o
    0x08005838   0x08005838   0x0000005c   Code   RO         1903    i.FLASH_SetErrorCode  stm32f1xx_hal_flash.o
    0x08005894   0x08005894   0x00000054   Code   RO         1904    i.FLASH_WaitForLastOperation  stm32f1xx_hal_flash.o
    0x080058e8   0x080058e8   0x00000060   Code   RO          215    i.Find_string       my_string.o
    0x08005948   0x08005948   0x00000030   Code   RO         1566    i.HAL_DMA_Abort     stm32f1xx_hal_dma.o
    0x08005978   0x08005978   0x00000130   Code   RO         1567    i.HAL_DMA_Abort_IT  stm32f1xx_hal_dma.o
    0x08005aa8   0x08005aa8   0x00000248   Code   RO         1571    i.HAL_DMA_IRQHandler  stm32f1xx_hal_dma.o
    0x08005cf0   0x08005cf0   0x0000007c   Code   RO         1572    i.HAL_DMA_Init      stm32f1xx_hal_dma.o
    0x08005d6c   0x08005d6c   0x00000070   Code   RO         1576    i.HAL_DMA_Start_IT  stm32f1xx_hal_dma.o
    0x08005ddc   0x08005ddc   0x00000024   Code   RO         1206    i.HAL_Delay         stm32f1xx_hal.o
    0x08005e00   0x08005e00   0x000000a8   Code   RO         2011    i.HAL_FLASHEx_Erase  stm32f1xx_hal_flash_ex.o
    0x08005ea8   0x08005ea8   0x00000014   Code   RO         1908    i.HAL_FLASH_Lock    stm32f1xx_hal_flash.o
    0x08005ebc   0x08005ebc   0x00000080   Code   RO         1913    i.HAL_FLASH_Program  stm32f1xx_hal_flash.o
    0x08005f3c   0x08005f3c   0x00000028   Code   RO         1915    i.HAL_FLASH_Unlock  stm32f1xx_hal_flash.o
    0x08005f64   0x08005f64   0x000001e8   Code   RO         1502    i.HAL_GPIO_Init     stm32f1xx_hal_gpio.o
    0x0800614c   0x0800614c   0x0000000a   Code   RO         1504    i.HAL_GPIO_ReadPin  stm32f1xx_hal_gpio.o
    0x08006156   0x08006156   0x0000000a   Code   RO         1506    i.HAL_GPIO_WritePin  stm32f1xx_hal_gpio.o
    0x08006160   0x08006160   0x0000000c   Code   RO         1210    i.HAL_GetTick       stm32f1xx_hal.o
    0x0800616c   0x0800616c   0x00000010   Code   RO         1214    i.HAL_IncTick       stm32f1xx_hal.o
    0x0800617c   0x0800617c   0x00000024   Code   RO         1215    i.HAL_Init          stm32f1xx_hal.o
    0x080061a0   0x080061a0   0x00000040   Code   RO         1216    i.HAL_InitTick      stm32f1xx_hal.o
    0x080061e0   0x080061e0   0x0000004c   Code   RO          705    i.HAL_MspInit       stm32f1xx_hal_msp.o
    0x0800622c   0x0800622c   0x00000016   Code   RO         1661    i.HAL_NVIC_DisableIRQ  stm32f1xx_hal_cortex.o
    0x08006242   0x08006242   0x00000016   Code   RO         1662    i.HAL_NVIC_EnableIRQ  stm32f1xx_hal_cortex.o
    0x08006258   0x08006258   0x00000040   Code   RO         1668    i.HAL_NVIC_SetPriority  stm32f1xx_hal_cortex.o
    0x08006298   0x08006298   0x00000024   Code   RO         1669    i.HAL_NVIC_SetPriorityGrouping  stm32f1xx_hal_cortex.o
    0x080062bc   0x080062bc   0x00000024   Code   RO         1670    i.HAL_NVIC_SystemReset  stm32f1xx_hal_cortex.o
    0x080062e0   0x080062e0   0x0000016c   Code   RO         1362    i.HAL_RCC_ClockConfig  stm32f1xx_hal_rcc.o
    0x0800644c   0x0800644c   0x00000020   Code   RO         1369    i.HAL_RCC_GetPCLK1Freq  stm32f1xx_hal_rcc.o
    0x0800646c   0x0800646c   0x00000020   Code   RO         1370    i.HAL_RCC_GetPCLK2Freq  stm32f1xx_hal_rcc.o
    0x0800648c   0x0800648c   0x0000006c   Code   RO         1371    i.HAL_RCC_GetSysClockFreq  stm32f1xx_hal_rcc.o
    0x080064f8   0x080064f8   0x00000304   Code   RO         1374    i.HAL_RCC_OscConfig  stm32f1xx_hal_rcc.o
    0x080067fc   0x080067fc   0x00000028   Code   RO         1673    i.HAL_SYSTICK_Config  stm32f1xx_hal_cortex.o
    0x08006824   0x08006824   0x00000058   Code   RO          892    i.HAL_UART_DMAStop  stm32f1xx_hal_uart.o
    0x0800687c   0x0800687c   0x00000002   Code   RO          894    i.HAL_UART_ErrorCallback  stm32f1xx_hal_uart.o
    0x0800687e   0x0800687e   0x00000002   PAD
    0x08006880   0x08006880   0x00000110   Code   RO          897    i.HAL_UART_IRQHandler  stm32f1xx_hal_uart.o
    0x08006990   0x08006990   0x00000062   Code   RO          898    i.HAL_UART_Init     stm32f1xx_hal_uart.o
    0x080069f2   0x080069f2   0x00000002   PAD
    0x080069f4   0x080069f4   0x00000234   Code   RO          478    i.HAL_UART_MspInit  usart.o
    0x08006c28   0x08006c28   0x00000098   Code   RO          902    i.HAL_UART_Receive_DMA  stm32f1xx_hal_uart.o
    0x08006cc0   0x08006cc0   0x00000120   Code   RO          479    i.HAL_UART_RxCpltCallback  usart.o
    0x08006de0   0x08006de0   0x00000002   Code   RO          905    i.HAL_UART_RxHalfCpltCallback  stm32f1xx_hal_uart.o
    0x08006de2   0x08006de2   0x000000ba   Code   RO          906    i.HAL_UART_Transmit  stm32f1xx_hal_uart.o
    0x08006e9c   0x08006e9c   0x00000002   Code   RO          909    i.HAL_UART_TxCpltCallback  stm32f1xx_hal_uart.o
    0x08006e9e   0x08006e9e   0x00000002   Code   RO          582    i.HardFault_Handler  stm32f1xx_it.o
    0x08006ea0   0x08006ea0   0x00000018   Code   RO          335    i.LedOff            led.o
    0x08006eb8   0x08006eb8   0x00000018   Code   RO          336    i.LedOn             led.o
    0x08006ed0   0x08006ed0   0x00000050   Code   RO          337    i.LedTask           led.o
    0x08006f20   0x08006f20   0x0000006c   Code   RO          452    i.MX_DMA_Init       dma.o
    0x08006f8c   0x08006f8c   0x000000d0   Code   RO          428    i.MX_GPIO_Init      gpio.o
    0x0800705c   0x0800705c   0x00000038   Code   RO          480    i.MX_USART1_UART_Init  usart.o
    0x08007094   0x08007094   0x00000038   Code   RO          481    i.MX_USART2_UART_Init  usart.o
    0x080070cc   0x080070cc   0x00000038   Code   RO          482    i.MX_USART3_UART_Init  usart.o
    0x08007104   0x08007104   0x00000002   Code   RO          583    i.MemManage_Handler  stm32f1xx_it.o
    0x08007106   0x08007106   0x00000002   Code   RO          584    i.NMI_Handler       stm32f1xx_it.o
    0x08007108   0x08007108   0x00000020   Code   RO         1675    i.NVIC_SetPriority  stm32f1xx_hal_cortex.o
    0x08007128   0x08007128   0x00000024   Code   RO          483    i.NVIC_SystemReset  usart.o
    0x0800714c   0x0800714c   0x00000020   Code   RO           16    i.OTA_Task          sim7600.o
    0x0800716c   0x0800716c   0x00000002   Code   RO          585    i.PendSV_Handler    stm32f1xx_it.o
    0x0800716e   0x0800716e   0x00000002   Code   RO          586    i.RCC_IRQHandler    stm32f1xx_it.o
    0x08007170   0x08007170   0x00000674   Code   RO           17    i.Rec_WaitAT        sim7600.o
    0x080077e4   0x080077e4   0x000000d8   Code   RO           18    i.SIM7600_Close     sim7600.o
    0x080078bc   0x080078bc   0x000000c4   Code   RO           19    i.SIM7600_Init      sim7600.o
    0x08007980   0x08007980   0x00000074   Code   RO           20    i.SIM7600_Task      sim7600.o
    0x080079f4   0x080079f4   0x00000044   Code   RO           21    i.SIM7600_Wake_up   sim7600.o
    0x08007a38   0x08007a38   0x00000002   Code   RO          587    i.SVC_Handler       stm32f1xx_it.o
    0x08007a3a   0x08007a3a   0x00000002   PAD
    0x08007a3c   0x08007a3c   0x00000010   Code   RO          338    i.SetLedRun         led.o
    0x08007a4c   0x08007a4c   0x00000010   Code   RO          305    i.SetTime           time.o
    0x08007a5c   0x08007a5c   0x00000018   Code   RO          732    i.Set_Update_Down   ymodem.o
    0x08007a74   0x08007a74   0x000000a4   Code   RO           22    i.SimCom_check      sim7600.o
    0x08007b18   0x08007b18   0x00000004   Code   RO          588    i.SysTick_Handler   stm32f1xx_it.o
    0x08007b1c   0x08007b1c   0x0000004e   Code   RO          390    i.SystemClock_Config  main.o
    0x08007b6a   0x08007b6a   0x00000002   PAD
    0x08007b6c   0x08007b6c   0x00000048   Code   RO         2091    i.SystemInit        system_stm32f1xx.o
    0x08007bb4   0x08007bb4   0x00000010   Code   RO          911    i.UART_DMAAbortOnError  stm32f1xx_hal_uart.o
    0x08007bc4   0x08007bc4   0x0000004a   Code   RO          912    i.UART_DMAError     stm32f1xx_hal_uart.o
    0x08007c0e   0x08007c0e   0x0000003c   Code   RO          913    i.UART_DMAReceiveCplt  stm32f1xx_hal_uart.o
    0x08007c4a   0x08007c4a   0x0000000a   Code   RO          915    i.UART_DMARxHalfCplt  stm32f1xx_hal_uart.o
    0x08007c54   0x08007c54   0x0000001c   Code   RO          921    i.UART_EndRxTransfer  stm32f1xx_hal_uart.o
    0x08007c70   0x08007c70   0x00000012   Code   RO          922    i.UART_EndTxTransfer  stm32f1xx_hal_uart.o
    0x08007c82   0x08007c82   0x00000096   Code   RO          923    i.UART_Receive_IT   stm32f1xx_hal_uart.o
    0x08007d18   0x08007d18   0x00000170   Code   RO          924    i.UART_SetConfig    stm32f1xx_hal_uart.o
    0x08007e88   0x08007e88   0x00000062   Code   RO          925    i.UART_Transmit_IT  stm32f1xx_hal_uart.o
    0x08007eea   0x08007eea   0x00000064   Code   RO          926    i.UART_WaitOnFlagUntilTimeout  stm32f1xx_hal_uart.o
    0x08007f4e   0x08007f4e   0x00000002   PAD
    0x08007f50   0x08007f50   0x00000058   Code   RO          589    i.USART1_IRQHandler  stm32f1xx_it.o
    0x08007fa8   0x08007fa8   0x00000058   Code   RO          590    i.USART2_IRQHandler  stm32f1xx_it.o
    0x08008000   0x08008000   0x00000058   Code   RO          591    i.USART3_IRQHandler  stm32f1xx_it.o
    0x08008058   0x08008058   0x00000054   Code   RO          484    i.USART_Task        usart.o
    0x080080ac   0x080080ac   0x00000002   Code   RO          592    i.UsageFault_Handler  stm32f1xx_it.o
    0x080080ae   0x080080ae   0x00000002   PAD
    0x080080b0   0x080080b0   0x00000032   Code   RO          734    i.WriteFlash        ymodem.o
    0x080080e2   0x080080e2   0x00000002   PAD
    0x080080e4   0x080080e4   0x00000020   Code   RO         2283    i.__0printf$5       mc_w.l(printf5.o)
    0x08008104   0x08008104   0x00000028   Code   RO         2285    i.__0sprintf$5      mc_w.l(printf5.o)
    0x0800812c   0x0800812c   0x00000008   Code   RO         2432    i.__aeabi_errno_addr  mc_w.l(errno.o)
    0x08008134   0x08008134   0x0000000e   Code   RO         2494    i.__scatterload_copy  mc_w.l(handlers.o)
    0x08008142   0x08008142   0x00000002   Code   RO         2495    i.__scatterload_null  mc_w.l(handlers.o)
    0x08008144   0x08008144   0x0000000e   Code   RO         2496    i.__scatterload_zeroinit  mc_w.l(handlers.o)
    0x08008152   0x08008152   0x00000002   PAD
    0x08008154   0x08008154   0x000002c0   Code   RO         2290    i._printf_core      mc_w.l(printf5.o)
    0x08008414   0x08008414   0x0000000a   Code   RO         2292    i._sputc            mc_w.l(printf5.o)
    0x0800841e   0x0800841e   0x00000002   PAD
    0x08008420   0x08008420   0x00000018   Code   RO          486    i.fputc             usart.o
    0x08008438   0x08008438   0x000000f0   Code   RO          391    i.main              main.o
    0x08008528   0x08008528   0x000001b8   Code   RO          487    i.scan_CITC         usart.o
    0x080086e0   0x080086e0   0x0000001c   Code   RO           23    i.work_LED          sim7600.o
    0x080086fc   0x080086fc   0x00000006   Data   RO          340    .constdata          led.o
    0x08008702   0x08008702   0x00000010   Data   RO         2092    .constdata          system_stm32f1xx.o
    0x08008712   0x08008712   0x00000008   Data   RO         2093    .constdata          system_stm32f1xx.o
    0x0800871a   0x0800871a   0x00000081   Data   RO         2459    .constdata          mc_w.l(ctype_o.o)
    0x0800879b   0x0800879b   0x00000001   PAD
    0x0800879c   0x0800879c   0x00000004   Data   RO         2460    .constdata          mc_w.l(ctype_o.o)
    0x080087a0   0x080087a0   0x0000026c   Data   RO           25    .conststring        sim7600.o
    0x08008a0c   0x08008a0c   0x00000020   Data   RO         2492    Region$$Table       anon$$obj.o


    Execution Region RW_IRAM1 (Exec base: 0x20000000, Load base: 0x08008a2c, Size: 0x00004538, Max: 0x0000c000, ABSOLUTE, COMPRESSED[0x000000bc])

    Exec Addr    Load Addr    Size         Type   Attr      Idx    E Section Name        Object

    0x20000000   COMPRESSED   0x00000190   Data   RW           26    .data               sim7600.o
    0x20000190   COMPRESSED   0x00000005   Data   RW          341    .data               led.o
    0x20000195   COMPRESSED   0x00000001   Data   RW          489    .data               usart.o
    0x20000196   COMPRESSED   0x00000002   PAD
    0x20000198   COMPRESSED   0x0000000c   Data   RW         1222    .data               stm32f1xx_hal.o
    0x200001a4   COMPRESSED   0x00000004   Data   RW         2094    .data               system_stm32f1xx.o
    0x200001a8   COMPRESSED   0x00000004   Data   RW         2427    .data               mc_w.l(stdout.o)
    0x200001ac   COMPRESSED   0x00000004   Data   RW         2435    .data               mc_w.l(errno.o)
    0x200001b0        -       0x00000521   Zero   RW           24    .bss                sim7600.o
    0x200006d1   COMPRESSED   0x00000003   PAD
    0x200006d4        -       0x00000018   Zero   RW          339    .bss                led.o
    0x200006ec        -       0x00002e2c   Zero   RW          488    .bss                usart.o
    0x20003518        -       0x00000020   Zero   RW         1916    .bss                stm32f1xx_hal_flash.o
    0x20003538        -       0x00001000   Zero   RW            1    STACK               startup_stm32f103xe.o


==============================================================================

Image component sizes


      Code (inc. data)   RO Data    RW Data    ZI Data      Debug   Object Name

       108          4          0          0          0        810   dma.o
       208         12          0          0          0        999   gpio.o
       144         32          6          5         24       3120   led.o
       320        134          0          0          0       1964   main.o
        96         24          0          0          0        818   my_string.o
      3052       1024        620        400       1313     489908   sim7600.o
        36          8        304          0       4096        824   startup_stm32f103xe.o
       164         28          0         12          0       6677   stm32f1xx_hal.o
       252         24          0          0          0      27144   stm32f1xx_hal_cortex.o
      1214         52          0          0          0       5178   stm32f1xx_hal_dma.o
       392         46          0          0         32       4898   stm32f1xx_hal_flash.o
       240         26          0          0          0       3333   stm32f1xx_hal_flash_ex.o
       508         42          0          0          0       3599   stm32f1xx_hal_gpio.o
        76          8          0          0          0        894   stm32f1xx_hal_msp.o
      1308         98          0          0          0       5348   stm32f1xx_hal_rcc.o
      1724         24          0          0          0      13265   stm32f1xx_hal_uart.o
       346         66          0          0          0       9059   stm32f1xx_it.o
        72         16         24          4          0       1223   system_stm32f1xx.o
        42          0          0          0          0       1436   time.o
      1752        388          0          1      11820      10884   usart.o
       114          4          0          0          0       2501   ymodem.o

    ----------------------------------------------------------------------
     12184       2060        986        424      17288     593882   Object Totals
         0          0         32          0          0          0   (incl. Generated)
        16          0          0          2          3          0   (incl. Padding)

    ----------------------------------------------------------------------

      Code (inc. data)   RO Data    RW Data    ZI Data      Debug   Library Member Name

        86          0          0          0          0          0   __dczerorl2.o
        28          0          0          0          0         68   _chval.o
       158          0          0          0          0         92   _strtoul.o
        26          0          0          0          0         80   atoi.o
         8          4        133          0          0         68   ctype_o.o
         0          0          0          0          0          0   entry.o
         0          0          0          0          0          0   entry10a.o
         0          0          0          0          0          0   entry11a.o
         8          4          0          0          0          0   entry2.o
         4          0          0          0          0          0   entry5.o
         0          0          0          0          0          0   entry7b.o
         0          0          0          0          0          0   entry8b.o
         8          4          0          0          0          0   entry9a.o
         8          4          0          4          0         68   errno.o
        30          0          0          0          0          0   handlers.o
        36          8          0          0          0         68   init.o
        30          0          0          0          0         68   llshl.o
        32          0          0          0          0         68   llushr.o
        36          0          0          0          0         68   memcpya.o
        36          0          0          0          0        108   memseta.o
       786         62          0          0          0        336   printf5.o
         0          0          0          4          0          0   stdout.o
        14          0          0          0          0         68   strlen.o
        36          0          0          0          0         80   strstr.o
       112          0          0          0          0         88   strtol.o
        98          0          0          0          0         92   uldiv.o

    ----------------------------------------------------------------------
      1588         86        134          8          0       1420   Library Totals
         8          0          1          0          0          0   (incl. Padding)

    ----------------------------------------------------------------------

      Code (inc. data)   RO Data    RW Data    ZI Data      Debug   Library Name

      1580         86        133          8          0       1420   mc_w.l

    ----------------------------------------------------------------------
      1588         86        134          8          0       1420   Library Totals

    ----------------------------------------------------------------------

==============================================================================


      Code (inc. data)   RO Data    RW Data    ZI Data      Debug   

     13772       2146       1120        432      17288     589346   Grand Totals
     13772       2146       1120        188      17288     589346   ELF Image Totals (compressed)
     13772       2146       1120        188          0          0   ROM Totals

==============================================================================

    Total RO  Size (Code + RO Data)                14892 (  14.54kB)
    Total RW  Size (RW Data + ZI Data)             17720 (  17.30kB)
    Total ROM Size (Code + RO Data + RW Data)      15080 (  14.73kB)

==============================================================================

